{
  "contractName": "Notary",
  "abi": [
    {
      "inputs": [],
      "stateMutability": "nonpayable",
      "type": "constructor"
    },
    {
      "anonymous": false,
      "inputs": [
        {
          "indexed": true,
          "internalType": "address",
          "name": "owner",
          "type": "address"
        },
        {
          "indexed": true,
          "internalType": "address",
          "name": "approved",
          "type": "address"
        },
        {
          "indexed": true,
          "internalType": "uint256",
          "name": "tokenId",
          "type": "uint256"
        }
      ],
      "name": "Approval",
      "type": "event"
    },
    {
      "anonymous": false,
      "inputs": [
        {
          "indexed": true,
          "internalType": "address",
          "name": "owner",
          "type": "address"
        },
        {
          "indexed": true,
          "internalType": "address",
          "name": "operator",
          "type": "address"
        },
        {
          "indexed": false,
          "internalType": "bool",
          "name": "approved",
          "type": "bool"
        }
      ],
      "name": "ApprovalForAll",
      "type": "event"
    },
    {
      "anonymous": false,
      "inputs": [
        {
          "indexed": false,
          "internalType": "uint256",
          "name": "newStarId",
          "type": "uint256"
        },
        {
          "indexed": false,
          "internalType": "string",
          "name": "newStarName",
          "type": "string"
        },
        {
          "indexed": false,
          "internalType": "address",
          "name": "createdBy",
          "type": "address"
        }
      ],
      "name": "StarCreated",
      "type": "event"
    },
    {
      "anonymous": false,
      "inputs": [
        {
          "indexed": true,
          "internalType": "address",
          "name": "from",
          "type": "address"
        },
        {
          "indexed": true,
          "internalType": "address",
          "name": "to",
          "type": "address"
        },
        {
          "indexed": true,
          "internalType": "uint256",
          "name": "tokenId",
          "type": "uint256"
        }
      ],
      "name": "Transfer",
      "type": "event"
    },
    {
      "inputs": [
        {
          "internalType": "address",
          "name": "to",
          "type": "address"
        },
        {
          "internalType": "uint256",
          "name": "tokenId",
          "type": "uint256"
        }
      ],
      "name": "approve",
      "outputs": [],
      "stateMutability": "nonpayable",
      "type": "function"
    },
    {
      "inputs": [
        {
          "internalType": "address",
          "name": "owner",
          "type": "address"
        }
      ],
      "name": "balanceOf",
      "outputs": [
        {
          "internalType": "uint256",
          "name": "",
          "type": "uint256"
        }
      ],
      "stateMutability": "view",
      "type": "function",
      "constant": true
    },
    {
      "inputs": [
        {
          "internalType": "uint256",
          "name": "tokenId",
          "type": "uint256"
        }
      ],
      "name": "getApproved",
      "outputs": [
        {
          "internalType": "address",
          "name": "",
          "type": "address"
        }
      ],
      "stateMutability": "view",
      "type": "function",
      "constant": true
    },
    {
      "inputs": [
        {
          "internalType": "address",
          "name": "owner",
          "type": "address"
        },
        {
          "internalType": "address",
          "name": "operator",
          "type": "address"
        }
      ],
      "name": "isApprovedForAll",
      "outputs": [
        {
          "internalType": "bool",
          "name": "",
          "type": "bool"
        }
      ],
      "stateMutability": "view",
      "type": "function",
      "constant": true
    },
    {
      "inputs": [],
      "name": "name",
      "outputs": [
        {
          "internalType": "string",
          "name": "",
          "type": "string"
        }
      ],
      "stateMutability": "view",
      "type": "function",
      "constant": true
    },
    {
      "inputs": [
        {
          "internalType": "uint256",
          "name": "tokenId",
          "type": "uint256"
        }
      ],
      "name": "ownerOf",
      "outputs": [
        {
          "internalType": "address",
          "name": "",
          "type": "address"
        }
      ],
      "stateMutability": "view",
      "type": "function",
      "constant": true
    },
    {
      "inputs": [
        {
          "internalType": "address",
          "name": "from",
          "type": "address"
        },
        {
          "internalType": "address",
          "name": "to",
          "type": "address"
        },
        {
          "internalType": "uint256",
          "name": "tokenId",
          "type": "uint256"
        }
      ],
      "name": "safeTransferFrom",
      "outputs": [],
      "stateMutability": "nonpayable",
      "type": "function"
    },
    {
      "inputs": [
        {
          "internalType": "address",
          "name": "from",
          "type": "address"
        },
        {
          "internalType": "address",
          "name": "to",
          "type": "address"
        },
        {
          "internalType": "uint256",
          "name": "tokenId",
          "type": "uint256"
        },
        {
          "internalType": "bytes",
          "name": "_data",
          "type": "bytes"
        }
      ],
      "name": "safeTransferFrom",
      "outputs": [],
      "stateMutability": "nonpayable",
      "type": "function"
    },
    {
      "inputs": [
        {
          "internalType": "address",
          "name": "operator",
          "type": "address"
        },
        {
          "internalType": "bool",
          "name": "approved",
          "type": "bool"
        }
      ],
      "name": "setApprovalForAll",
      "outputs": [],
      "stateMutability": "nonpayable",
      "type": "function"
    },
    {
      "inputs": [
        {
          "internalType": "uint256",
          "name": "",
          "type": "uint256"
        }
      ],
      "name": "starsForSale",
      "outputs": [
        {
          "internalType": "uint256",
          "name": "",
          "type": "uint256"
        }
      ],
      "stateMutability": "view",
      "type": "function",
      "constant": true
    },
    {
      "inputs": [
        {
          "internalType": "bytes4",
          "name": "interfaceId",
          "type": "bytes4"
        }
      ],
      "name": "supportsInterface",
      "outputs": [
        {
          "internalType": "bool",
          "name": "",
          "type": "bool"
        }
      ],
      "stateMutability": "view",
      "type": "function",
      "constant": true
    },
    {
      "inputs": [],
      "name": "symbol",
      "outputs": [
        {
          "internalType": "string",
          "name": "",
          "type": "string"
        }
      ],
      "stateMutability": "view",
      "type": "function",
      "constant": true
    },
    {
      "inputs": [],
      "name": "tokenId",
      "outputs": [
        {
          "internalType": "uint256",
          "name": "",
          "type": "uint256"
        }
      ],
      "stateMutability": "view",
      "type": "function",
      "constant": true
    },
    {
      "inputs": [
        {
          "internalType": "uint256",
          "name": "",
          "type": "uint256"
        }
      ],
      "name": "tokenIdToStarInfo",
      "outputs": [
        {
          "internalType": "uint256",
          "name": "tokenId",
          "type": "uint256"
        },
        {
          "internalType": "string",
          "name": "name",
          "type": "string"
        }
      ],
      "stateMutability": "view",
      "type": "function",
      "constant": true
    },
    {
      "inputs": [
        {
          "internalType": "uint256",
          "name": "tokenId",
          "type": "uint256"
        }
      ],
      "name": "tokenURI",
      "outputs": [
        {
          "internalType": "string",
          "name": "",
          "type": "string"
        }
      ],
      "stateMutability": "view",
      "type": "function",
      "constant": true
    },
    {
      "inputs": [
        {
          "internalType": "address",
          "name": "from",
          "type": "address"
        },
        {
          "internalType": "address",
          "name": "to",
          "type": "address"
        },
        {
          "internalType": "uint256",
          "name": "tokenId",
          "type": "uint256"
        }
      ],
      "name": "transferFrom",
      "outputs": [],
      "stateMutability": "nonpayable",
      "type": "function"
    },
    {
      "inputs": [
        {
          "internalType": "string",
          "name": "_name",
          "type": "string"
        },
        {
          "internalType": "address",
          "name": "_to",
          "type": "address"
        }
      ],
      "name": "createStar",
      "outputs": [],
      "stateMutability": "nonpayable",
      "type": "function"
    },
    {
      "inputs": [
        {
          "internalType": "uint256",
          "name": "_tokenId",
          "type": "uint256"
        },
        {
          "internalType": "uint256",
          "name": "price_",
          "type": "uint256"
        },
        {
          "internalType": "address",
          "name": "to_",
          "type": "address"
        }
      ],
      "name": "putStarUpForSale",
      "outputs": [],
      "stateMutability": "nonpayable",
      "type": "function"
    },
    {
      "inputs": [
        {
          "internalType": "uint256",
          "name": "_tokenId",
          "type": "uint256"
        }
      ],
      "name": "lookUpTokenIdToStarInfo",
      "outputs": [
        {
          "internalType": "uint256",
          "name": "_starId",
          "type": "uint256"
        },
        {
          "internalType": "string",
          "name": "_star",
          "type": "string"
        },
        {
          "internalType": "address",
          "name": "_starOwner",
          "type": "address"
        }
      ],
      "stateMutability": "view",
      "type": "function",
      "constant": true
    },
    {
      "inputs": [
        {
          "internalType": "uint256",
          "name": "_tokenId",
          "type": "uint256"
        }
      ],
      "name": "buyStar",
      "outputs": [],
      "stateMutability": "payable",
      "type": "function",
      "payable": true
    },
    {
      "inputs": [
        {
          "internalType": "address",
          "name": "_from",
          "type": "address"
        },
        {
          "internalType": "address",
          "name": "_to",
          "type": "address"
        },
        {
          "internalType": "uint256",
          "name": "_tokenId",
          "type": "uint256"
        }
      ],
      "name": "transferStar",
      "outputs": [],
      "stateMutability": "nonpayable",
      "type": "function"
    },
    {
      "inputs": [
        {
          "internalType": "uint256",
          "name": "_tokenId",
          "type": "uint256"
        }
      ],
      "name": "getOwnerOf",
      "outputs": [
        {
          "internalType": "address",
          "name": "",
          "type": "address"
        }
      ],
      "stateMutability": "view",
      "type": "function",
      "constant": true
    },
    {
      "inputs": [
        {
          "internalType": "address",
          "name": "_account",
          "type": "address"
        }
      ],
      "name": "getBalanceOf",
      "outputs": [
        {
          "internalType": "uint256",
          "name": "tokenAmount",
          "type": "uint256"
        }
      ],
      "stateMutability": "view",
      "type": "function",
      "constant": true
    },
    {
      "inputs": [
        {
          "internalType": "uint256",
          "name": "_token1",
          "type": "uint256"
        },
        {
          "internalType": "address",
          "name": "_token2Owner",
          "type": "address"
        },
        {
          "internalType": "uint256",
          "name": "_token2",
          "type": "uint256"
        },
        {
          "internalType": "address",
          "name": "_token1Owner",
          "type": "address"
        }
      ],
      "name": "exchangeStars",
      "outputs": [],
      "stateMutability": "nonpayable",
      "type": "function"
    }
  ],
  "bytecode": "0x60806040526040518060400160405280600b81526020017f53746172204e6f74617279000000000000000000000000000000000000000000815250600690805190602001906200005192919062000216565b506040518060400160405280600381526020017f53544e0000000000000000000000000000000000000000000000000000000000815250600790805190602001906200009f92919062000216565b50348015620000ad57600080fd5b5060068054620000bd90620002c6565b80601f0160208091040260200160405190810160405280929190818152602001828054620000eb90620002c6565b80156200013c5780601f1062000110576101008083540402835291602001916200013c565b820191906000526020600020905b8154815290600101906020018083116200011e57829003601f168201915b5050505050600780546200015090620002c6565b80601f01602080910402602001604051908101604052809291908181526020018280546200017e90620002c6565b8015620001cf5780601f10620001a357610100808354040283529160200191620001cf565b820191906000526020600020905b815481529060010190602001808311620001b157829003601f168201915b50505050508160009080519060200190620001ec92919062000216565b5080600190805190602001906200020592919062000216565b50505060006008819055506200032b565b8280546200022490620002c6565b90600052602060002090601f01602090048101928262000248576000855562000294565b82601f106200026357805160ff191683800117855562000294565b8280016001018555821562000294579182015b828111156200029357825182559160200191906001019062000276565b5b509050620002a39190620002a7565b5090565b5b80821115620002c2576000816000905550600101620002a8565b5090565b60006002820490506001821680620002df57607f821691505b60208210811415620002f657620002f5620002fc565b5b50919050565b7f4e487b7100000000000000000000000000000000000000000000000000000000600052602260045260246000fd5b61387a806200033b6000396000f3fe60806040526004361061014b5760003560e01c806342842e0e116100b657806395d89b411161006f57806395d89b41146104cc5780639b96eece146104f7578063a22cb46514610534578063b88d4fde1461055d578063c87b56dd14610586578063e985e9c5146105c35761014b565b806342842e0e1461039a5780636352211e146103c357806370a0823114610400578063710990bc1461043d5780637d2ded9714610466578063836387101461048f5761014b565b80631967fd98116101085780631967fd981461028657806323b872dd146102c45780632f1c34ef146102ed57806337706d0c146103095780633b06565a146103325780633d9128581461035b5761014b565b806301ffc9a7146101505780630564b1301461018d57806306fdde03146101ca578063081812fc146101f5578063095ea7b31461023257806317d70f7c1461025b575b600080fd5b34801561015c57600080fd5b5061017760048036038101906101729190612419565b610600565b6040516101849190612a70565b60405180910390f35b34801561019957600080fd5b506101b460048036038101906101af91906124cf565b6106e2565b6040516101c19190612d4d565b60405180910390f35b3480156101d657600080fd5b506101df6106fa565b6040516101ec9190612a8b565b60405180910390f35b34801561020157600080fd5b5061021c600480360381019061021791906124cf565b61078c565b6040516102299190612a09565b60405180910390f35b34801561023e57600080fd5b50610259600480360381019061025491906123d9565b610811565b005b34801561026757600080fd5b50610270610929565b60405161027d9190612d4d565b60405180910390f35b34801561029257600080fd5b506102ad60048036038101906102a891906124cf565b61092f565b6040516102bb929190612d68565b60405180910390f35b3480156102d057600080fd5b506102eb60048036038101906102e691906122c3565b6109db565b005b610307600480360381019061030291906124cf565b610a3b565b005b34801561031557600080fd5b50610330600480360381019061032b91906122c3565b610c22565b005b34801561033e57600080fd5b5061035960048036038101906103549190612473565b610c72565b005b34801561036757600080fd5b50610382600480360381019061037d91906124cf565b610de2565b60405161039193929190612d98565b60405180910390f35b3480156103a657600080fd5b506103c160048036038101906103bc91906122c3565b610eb4565b005b3480156103cf57600080fd5b506103ea60048036038101906103e591906124cf565b610ed4565b6040516103f79190612a09565b60405180910390f35b34801561040c57600080fd5b5061042760048036038101906104229190612256565b610f86565b6040516104349190612d4d565b60405180910390f35b34801561044957600080fd5b50610464600480360381019061045f9190612563565b61103e565b005b34801561047257600080fd5b5061048d600480360381019061048891906124fc565b611162565b005b34801561049b57600080fd5b506104b660048036038101906104b191906124cf565b61126a565b6040516104c39190612a09565b60405180910390f35b3480156104d857600080fd5b506104e161127c565b6040516104ee9190612a8b565b60405180910390f35b34801561050357600080fd5b5061051e60048036038101906105199190612256565b61130e565b60405161052b9190612d4d565b60405180910390f35b34801561054057600080fd5b5061055b60048036038101906105569190612399565b611320565b005b34801561056957600080fd5b50610584600480360381019061057f9190612316565b6114a1565b005b34801561059257600080fd5b506105ad60048036038101906105a891906124cf565b611503565b6040516105ba9190612a8b565b60405180910390f35b3480156105cf57600080fd5b506105ea60048036038101906105e59190612283565b6115aa565b6040516105f79190612a70565b60405180910390f35b60007f80ac58cd000000000000000000000000000000000000000000000000000000007bffffffffffffffffffffffffffffffffffffffffffffffffffffffff1916827bffffffffffffffffffffffffffffffffffffffffffffffffffffffff191614806106cb57507f5b5e139f000000000000000000000000000000000000000000000000000000007bffffffffffffffffffffffffffffffffffffffffffffffffffffffff1916827bffffffffffffffffffffffffffffffffffffffffffffffffffffffff1916145b806106db57506106da8261163e565b5b9050919050565b600a6020528060005260406000206000915090505481565b60606000805461070990613064565b80601f016020809104026020016040519081016040528092919081815260200182805461073590613064565b80156107825780601f1061075757610100808354040283529160200191610782565b820191906000526020600020905b81548152906001019060200180831161076557829003601f168201915b5050505050905090565b6000610797826116a8565b6107d6576040517f08c379a00000000000000000000000000000000000000000000000000000000081526004016107cd90612c6d565b60405180910390fd5b6004600083815260200190815260200160002060009054906101000a900473ffffffffffffffffffffffffffffffffffffffff169050919050565b600061081c82610ed4565b90508073ffffffffffffffffffffffffffffffffffffffff168373ffffffffffffffffffffffffffffffffffffffff16141561088d576040517f08c379a000000000000000000000000000000000000000000000000000000000815260040161088490612ccd565b60405180910390fd5b8073ffffffffffffffffffffffffffffffffffffffff166108ac611714565b73ffffffffffffffffffffffffffffffffffffffff1614806108db57506108da816108d5611714565b6115aa565b5b61091a576040517f08c379a000000000000000000000000000000000000000000000000000000000815260040161091190612bad565b60405180910390fd5b610924838361171c565b505050565b60085481565b600960205280600052604060002060009150905080600001549080600101805461095890613064565b80601f016020809104026020016040519081016040528092919081815260200182805461098490613064565b80156109d15780601f106109a6576101008083540402835291602001916109d1565b820191906000526020600020905b8154815290600101906020018083116109b457829003601f168201915b5050505050905082565b6109ec6109e6611714565b826117d5565b610a2b576040517f08c379a0000000000000000000000000000000000000000000000000000000008152600401610a2290612d0d565b60405180910390fd5b610a368383836118b3565b505050565b6000600a60008381526020019081526020016000205411610a91576040517f08c379a0000000000000000000000000000000000000000000000000000000008152600401610a8890612d2d565b60405180910390fd5b6000600a60008381526020019081526020016000205490506000610ab483610ed4565b905081341015610af9576040517f08c379a0000000000000000000000000000000000000000000000000000000008152600401610af090612b6d565b60405180910390fd5b610b04813385610eb4565b6000610b0f82611b0f565b90506000610b1c33611b0f565b90508173ffffffffffffffffffffffffffffffffffffffff166108fc859081150290604051600060405180830381858888f19350505050158015610b64573d6000803e3d6000fd5b5083341115610bc0578073ffffffffffffffffffffffffffffffffffffffff166108fc8534610b939190612f7a565b9081150290604051600060405180830381858888f19350505050158015610bbe573d6000803e3d6000fd5b505b843373ffffffffffffffffffffffffffffffffffffffff168473ffffffffffffffffffffffffffffffffffffffff167fddf252ad1be2c89b69c2b068fc378daa952ba7f163c4a11628f55a4df523b3ef60405160405180910390a45050505050565b3373ffffffffffffffffffffffffffffffffffffffff16610c4282610ed4565b73ffffffffffffffffffffffffffffffffffffffff1614610c6257600080fd5b610c6d8383836109db565b505050565b8160069080519060200190610c8892919061206a565b50600160086000828254610c9c9190612ef3565b9250508190555060006040518060400160405280600854815260200160068054610cc590613064565b80601f0160208091040260200160405190810160405280929190818152602001828054610cf190613064565b8015610d3e5780601f10610d1357610100808354040283529160200191610d3e565b820191906000526020600020905b815481529060010190602001808311610d2157829003601f168201915b5050505050815250905080600960006008548152602001908152602001600020600082015181600001556020820151816001019080519060200190610d8492919061206a565b50905050610d93826001611320565b610d9f33600854611b19565b7f980bcaa43416bb316951a84ec7e8a7d558117eca1318078a19107f090005db29600854600633604051610dd593929190612dd6565b60405180910390a1505050565b60006060600060096000858152602001908152602001600020600001549250600960008581526020019081526020016000206001018054610e2290613064565b80601f0160208091040260200160405190810160405280929190818152602001828054610e4e90613064565b8015610e9b5780601f10610e7057610100808354040283529160200191610e9b565b820191906000526020600020905b815481529060010190602001808311610e7e57829003601f168201915b50505050509150610eab83610ed4565b90509193909250565b610ecf838383604051806020016040528060008152506114a1565b505050565b6000806002600084815260200190815260200160002060009054906101000a900473ffffffffffffffffffffffffffffffffffffffff169050600073ffffffffffffffffffffffffffffffffffffffff168173ffffffffffffffffffffffffffffffffffffffff161415610f7d576040517f08c379a0000000000000000000000000000000000000000000000000000000008152600401610f7490612bed565b60405180910390fd5b80915050919050565b60008073ffffffffffffffffffffffffffffffffffffffff168273ffffffffffffffffffffffffffffffffffffffff161415610ff7576040517f08c379a0000000000000000000000000000000000000000000000000000000008152600401610fee90612bcd565b60405180910390fd5b600360008373ffffffffffffffffffffffffffffffffffffffff1673ffffffffffffffffffffffffffffffffffffffff168152602001908152602001600020549050919050565b60008311611081576040517f08c379a000000000000000000000000000000000000000000000000000000000815260040161107890612aad565b60405180910390fd5b600082116110c4576040517f08c379a00000000000000000000000000000000000000000000000000000000081526004016110bb90612ced565b60405180910390fd5b3373ffffffffffffffffffffffffffffffffffffffff166110e484610ed4565b73ffffffffffffffffffffffffffffffffffffffff161461113a576040517f08c379a000000000000000000000000000000000000000000000000000000000815260040161113190612c0d565b60405180910390fd5b611145816001611320565b81600a600085815260200190815260200160002081905550505050565b8073ffffffffffffffffffffffffffffffffffffffff1661118285610ed4565b73ffffffffffffffffffffffffffffffffffffffff16146111d8576040517f08c379a00000000000000000000000000000000000000000000000000000000081526004016111cf90612c4d565b60405180910390fd5b8273ffffffffffffffffffffffffffffffffffffffff166111f883610ed4565b73ffffffffffffffffffffffffffffffffffffffff161461124e576040517f08c379a000000000000000000000000000000000000000000000000000000000815260040161124590612b8d565b60405180910390fd5b6112598184866109db565b6112648382846109db565b50505050565b600061127582610ed4565b9050919050565b60606001805461128b90613064565b80601f01602080910402602001604051908101604052809291908181526020018280546112b790613064565b80156113045780601f106112d957610100808354040283529160200191611304565b820191906000526020600020905b8154815290600101906020018083116112e757829003601f168201915b5050505050905090565b600061131982610f86565b9050919050565b611328611714565b73ffffffffffffffffffffffffffffffffffffffff168273ffffffffffffffffffffffffffffffffffffffff161415611396576040517f08c379a000000000000000000000000000000000000000000000000000000000815260040161138d90612b2d565b60405180910390fd5b80600560006113a3611714565b73ffffffffffffffffffffffffffffffffffffffff1673ffffffffffffffffffffffffffffffffffffffff16815260200190815260200160002060008473ffffffffffffffffffffffffffffffffffffffff1673ffffffffffffffffffffffffffffffffffffffff16815260200190815260200160002060006101000a81548160ff0219169083151502179055508173ffffffffffffffffffffffffffffffffffffffff16611450611714565b73ffffffffffffffffffffffffffffffffffffffff167f17307eab39ab6107e8899845ad3d59bd9653f200f220920489ca2b5937696c31836040516114959190612a70565b60405180910390a35050565b6114b26114ac611714565b836117d5565b6114f1576040517f08c379a00000000000000000000000000000000000000000000000000000000081526004016114e890612d0d565b60405180910390fd5b6114fd84848484611ce7565b50505050565b606061150e826116a8565b61154d576040517f08c379a000000000000000000000000000000000000000000000000000000000815260040161154490612cad565b60405180910390fd5b6000611557611d43565b9050600081511161157757604051806020016040528060008152506115a2565b8061158184611d5a565b6040516020016115929291906129e5565b6040516020818303038152906040525b915050919050565b6000600560008473ffffffffffffffffffffffffffffffffffffffff1673ffffffffffffffffffffffffffffffffffffffff16815260200190815260200160002060008373ffffffffffffffffffffffffffffffffffffffff1673ffffffffffffffffffffffffffffffffffffffff16815260200190815260200160002060009054906101000a900460ff16905092915050565b60007f01ffc9a7000000000000000000000000000000000000000000000000000000007bffffffffffffffffffffffffffffffffffffffffffffffffffffffff1916827bffffffffffffffffffffffffffffffffffffffffffffffffffffffff1916149050919050565b60008073ffffffffffffffffffffffffffffffffffffffff166002600084815260200190815260200160002060009054906101000a900473ffffffffffffffffffffffffffffffffffffffff1673ffffffffffffffffffffffffffffffffffffffff1614159050919050565b600033905090565b816004600083815260200190815260200160002060006101000a81548173ffffffffffffffffffffffffffffffffffffffff021916908373ffffffffffffffffffffffffffffffffffffffff160217905550808273ffffffffffffffffffffffffffffffffffffffff1661178f83610ed4565b73ffffffffffffffffffffffffffffffffffffffff167f8c5be1e5ebec7d5bd14f71427d1e84f3dd0314c0f7b2291e5b200ac8c7c3b92560405160405180910390a45050565b60006117e0826116a8565b61181f576040517f08c379a000000000000000000000000000000000000000000000000000000000815260040161181690612b4d565b60405180910390fd5b600061182a83610ed4565b90508073ffffffffffffffffffffffffffffffffffffffff168473ffffffffffffffffffffffffffffffffffffffff16148061189957508373ffffffffffffffffffffffffffffffffffffffff166118818461078c565b73ffffffffffffffffffffffffffffffffffffffff16145b806118aa57506118a981856115aa565b5b91505092915050565b8273ffffffffffffffffffffffffffffffffffffffff166118d382610ed4565b73ffffffffffffffffffffffffffffffffffffffff1614611929576040517f08c379a000000000000000000000000000000000000000000000000000000000815260040161192090612c8d565b60405180910390fd5b600073ffffffffffffffffffffffffffffffffffffffff168273ffffffffffffffffffffffffffffffffffffffff161415611999576040517f08c379a000000000000000000000000000000000000000000000000000000000815260040161199090612b0d565b60405180910390fd5b6119a4838383611ebb565b6119af60008261171c565b6001600360008573ffffffffffffffffffffffffffffffffffffffff1673ffffffffffffffffffffffffffffffffffffffff16815260200190815260200160002060008282546119ff9190612f7a565b925050819055506001600360008473ffffffffffffffffffffffffffffffffffffffff1673ffffffffffffffffffffffffffffffffffffffff1681526020019081526020016000206000828254611a569190612ef3565b92505081905550816002600083815260200190815260200160002060006101000a81548173ffffffffffffffffffffffffffffffffffffffff021916908373ffffffffffffffffffffffffffffffffffffffff160217905550808273ffffffffffffffffffffffffffffffffffffffff168473ffffffffffffffffffffffffffffffffffffffff167fddf252ad1be2c89b69c2b068fc378daa952ba7f163c4a11628f55a4df523b3ef60405160405180910390a4505050565b6000819050919050565b600073ffffffffffffffffffffffffffffffffffffffff168273ffffffffffffffffffffffffffffffffffffffff161415611b89576040517f08c379a0000000000000000000000000000000000000000000000000000000008152600401611b8090612c2d565b60405180910390fd5b611b92816116a8565b15611bd2576040517f08c379a0000000000000000000000000000000000000000000000000000000008152600401611bc990612aed565b60405180910390fd5b611bde60008383611ebb565b6001600360008473ffffffffffffffffffffffffffffffffffffffff1673ffffffffffffffffffffffffffffffffffffffff1681526020019081526020016000206000828254611c2e9190612ef3565b92505081905550816002600083815260200190815260200160002060006101000a81548173ffffffffffffffffffffffffffffffffffffffff021916908373ffffffffffffffffffffffffffffffffffffffff160217905550808273ffffffffffffffffffffffffffffffffffffffff16600073ffffffffffffffffffffffffffffffffffffffff167fddf252ad1be2c89b69c2b068fc378daa952ba7f163c4a11628f55a4df523b3ef60405160405180910390a45050565b611cf28484846118b3565b611cfe84848484611ec0565b611d3d576040517f08c379a0000000000000000000000000000000000000000000000000000000008152600401611d3490612acd565b60405180910390fd5b50505050565b606060405180602001604052806000815250905090565b60606000821415611da2576040518060400160405280600181526020017f30000000000000000000000000000000000000000000000000000000000000008152509050611eb6565b600082905060005b60008214611dd4578080611dbd906130c7565b915050600a82611dcd9190612f49565b9150611daa565b60008167ffffffffffffffff811115611df057611def6131fd565b5b6040519080825280601f01601f191660200182016040528015611e225781602001600182028036833780820191505090505b5090505b60008514611eaf57600182611e3b9190612f7a565b9150600a85611e4a9190613110565b6030611e569190612ef3565b60f81b818381518110611e6c57611e6b6131ce565b5b60200101907effffffffffffffffffffffffffffffffffffffffffffffffffffffffffffff1916908160001a905350600a85611ea89190612f49565b9450611e26565b8093505050505b919050565b505050565b6000611ee18473ffffffffffffffffffffffffffffffffffffffff16612057565b1561204a578373ffffffffffffffffffffffffffffffffffffffff1663150b7a02611f0a611714565b8786866040518563ffffffff1660e01b8152600401611f2c9493929190612a24565b602060405180830381600087803b158015611f4657600080fd5b505af1925050508015611f7757506040513d601f19601f82011682018060405250810190611f749190612446565b60015b611ffa573d8060008114611fa7576040519150601f19603f3d011682016040523d82523d6000602084013e611fac565b606091505b50600081511415611ff2576040517f08c379a0000000000000000000000000000000000000000000000000000000008152600401611fe990612acd565b60405180910390fd5b805181602001fd5b63150b7a0260e01b7bffffffffffffffffffffffffffffffffffffffffffffffffffffffff1916817bffffffffffffffffffffffffffffffffffffffffffffffffffffffff19161491505061204f565b600190505b949350505050565b600080823b905060008111915050919050565b82805461207690613064565b90600052602060002090601f01602090048101928261209857600085556120df565b82601f106120b157805160ff19168380011785556120df565b828001600101855582156120df579182015b828111156120de5782518255916020019190600101906120c3565b5b5090506120ec91906120f0565b5090565b5b808211156121095760008160009055506001016120f1565b5090565b600061212061211b84612e39565b612e14565b90508281526020810184848401111561213c5761213b613231565b5b612147848285613022565b509392505050565b600061216261215d84612e6a565b612e14565b90508281526020810184848401111561217e5761217d613231565b5b612189848285613022565b509392505050565b6000813590506121a0816137e8565b92915050565b6000813590506121b5816137ff565b92915050565b6000813590506121ca81613816565b92915050565b6000815190506121df81613816565b92915050565b600082601f8301126121fa576121f961322c565b5b813561220a84826020860161210d565b91505092915050565b600082601f8301126122285761222761322c565b5b813561223884826020860161214f565b91505092915050565b6000813590506122508161382d565b92915050565b60006020828403121561226c5761226b61323b565b5b600061227a84828501612191565b91505092915050565b6000806040838503121561229a5761229961323b565b5b60006122a885828601612191565b92505060206122b985828601612191565b9150509250929050565b6000806000606084860312156122dc576122db61323b565b5b60006122ea86828701612191565b93505060206122fb86828701612191565b925050604061230c86828701612241565b9150509250925092565b600080600080608085870312156123305761232f61323b565b5b600061233e87828801612191565b945050602061234f87828801612191565b935050604061236087828801612241565b925050606085013567ffffffffffffffff81111561238157612380613236565b5b61238d878288016121e5565b91505092959194509250565b600080604083850312156123b0576123af61323b565b5b60006123be85828601612191565b92505060206123cf858286016121a6565b9150509250929050565b600080604083850312156123f0576123ef61323b565b5b60006123fe85828601612191565b925050602061240f85828601612241565b9150509250929050565b60006020828403121561242f5761242e61323b565b5b600061243d848285016121bb565b91505092915050565b60006020828403121561245c5761245b61323b565b5b600061246a848285016121d0565b91505092915050565b6000806040838503121561248a5761248961323b565b5b600083013567ffffffffffffffff8111156124a8576124a7613236565b5b6124b485828601612213565b92505060206124c585828601612191565b9150509250929050565b6000602082840312156124e5576124e461323b565b5b60006124f384828501612241565b91505092915050565b600080600080608085870312156125165761251561323b565b5b600061252487828801612241565b945050602061253587828801612191565b935050604061254687828801612241565b925050606061255787828801612191565b91505092959194509250565b60008060006060848603121561257c5761257b61323b565b5b600061258a86828701612241565b935050602061259b86828701612241565b92505060406125ac86828701612191565b9150509250925092565b6125bf81612fae565b82525050565b6125ce81612fc0565b82525050565b60006125df82612eb0565b6125e98185612ec6565b93506125f9818560208601613031565b61260281613240565b840191505092915050565b600061261882612ebb565b6126228185612ed7565b9350612632818560208601613031565b61263b81613240565b840191505092915050565b600061265182612ebb565b61265b8185612ee8565b935061266b818560208601613031565b80840191505092915050565b6000815461268481613064565b61268e8186612ed7565b945060018216600081146126a957600181146126bb576126ee565b60ff19831686526020860193506126ee565b6126c485612e9b565b60005b838110156126e6578154818901526001820191506020810190506126c7565b808801955050505b50505092915050565b6000612704601883612ed7565b915061270f82613251565b602082019050919050565b6000612727603283612ed7565b91506127328261327a565b604082019050919050565b600061274a601c83612ed7565b9150612755826132c9565b602082019050919050565b600061276d602483612ed7565b9150612778826132f2565b604082019050919050565b6000612790601983612ed7565b915061279b82613341565b602082019050919050565b60006127b3602c83612ed7565b91506127be8261336a565b604082019050919050565b60006127d6602d83612ed7565b91506127e1826133b9565b604082019050919050565b60006127f9602683612ed7565b915061280482613408565b604082019050919050565b600061281c603883612ed7565b915061282782613457565b604082019050919050565b600061283f602a83612ed7565b915061284a826134a6565b604082019050919050565b6000612862602983612ed7565b915061286d826134f5565b604082019050919050565b6000612885602a83612ed7565b915061289082613544565b604082019050919050565b60006128a8602083612ed7565b91506128b382613593565b602082019050919050565b60006128cb602683612ed7565b91506128d6826135bc565b604082019050919050565b60006128ee602c83612ed7565b91506128f98261360b565b604082019050919050565b6000612911602983612ed7565b915061291c8261365a565b604082019050919050565b6000612934602f83612ed7565b915061293f826136a9565b604082019050919050565b6000612957602183612ed7565b9150612962826136f8565b604082019050919050565b600061297a601c83612ed7565b915061298582613747565b602082019050919050565b600061299d603183612ed7565b91506129a882613770565b604082019050919050565b60006129c0601e83612ed7565b91506129cb826137bf565b602082019050919050565b6129df81613018565b82525050565b60006129f18285612646565b91506129fd8284612646565b91508190509392505050565b6000602082019050612a1e60008301846125b6565b92915050565b6000608082019050612a3960008301876125b6565b612a4660208301866125b6565b612a5360408301856129d6565b8181036060830152612a6581846125d4565b905095945050505050565b6000602082019050612a8560008301846125c5565b92915050565b60006020820190508181036000830152612aa5818461260d565b905092915050565b60006020820190508181036000830152612ac6816126f7565b9050919050565b60006020820190508181036000830152612ae68161271a565b9050919050565b60006020820190508181036000830152612b068161273d565b9050919050565b60006020820190508181036000830152612b2681612760565b9050919050565b60006020820190508181036000830152612b4681612783565b9050919050565b60006020820190508181036000830152612b66816127a6565b9050919050565b60006020820190508181036000830152612b86816127c9565b9050919050565b60006020820190508181036000830152612ba6816127ec565b9050919050565b60006020820190508181036000830152612bc68161280f565b9050919050565b60006020820190508181036000830152612be681612832565b9050919050565b60006020820190508181036000830152612c0681612855565b9050919050565b60006020820190508181036000830152612c2681612878565b9050919050565b60006020820190508181036000830152612c468161289b565b9050919050565b60006020820190508181036000830152612c66816128be565b9050919050565b60006020820190508181036000830152612c86816128e1565b9050919050565b60006020820190508181036000830152612ca681612904565b9050919050565b60006020820190508181036000830152612cc681612927565b9050919050565b60006020820190508181036000830152612ce68161294a565b9050919050565b60006020820190508181036000830152612d068161296d565b9050919050565b60006020820190508181036000830152612d2681612990565b9050919050565b60006020820190508181036000830152612d46816129b3565b9050919050565b6000602082019050612d6260008301846129d6565b92915050565b6000604082019050612d7d60008301856129d6565b8181036020830152612d8f818461260d565b90509392505050565b6000606082019050612dad60008301866129d6565b8181036020830152612dbf818561260d565b9050612dce60408301846125b6565b949350505050565b6000606082019050612deb60008301866129d6565b8181036020830152612dfd8185612677565b9050612e0c60408301846125b6565b949350505050565b6000612e1e612e2f565b9050612e2a8282613096565b919050565b6000604051905090565b600067ffffffffffffffff821115612e5457612e536131fd565b5b612e5d82613240565b9050602081019050919050565b600067ffffffffffffffff821115612e8557612e846131fd565b5b612e8e82613240565b9050602081019050919050565b60008190508160005260206000209050919050565b600081519050919050565b600081519050919050565b600082825260208201905092915050565b600082825260208201905092915050565b600081905092915050565b6000612efe82613018565b9150612f0983613018565b9250827fffffffffffffffffffffffffffffffffffffffffffffffffffffffffffffffff03821115612f3e57612f3d613141565b5b828201905092915050565b6000612f5482613018565b9150612f5f83613018565b925082612f6f57612f6e613170565b5b828204905092915050565b6000612f8582613018565b9150612f9083613018565b925082821015612fa357612fa2613141565b5b828203905092915050565b6000612fb982612ff8565b9050919050565b60008115159050919050565b60007fffffffff0000000000000000000000000000000000000000000000000000000082169050919050565b600073ffffffffffffffffffffffffffffffffffffffff82169050919050565b6000819050919050565b82818337600083830152505050565b60005b8381101561304f578082015181840152602081019050613034565b8381111561305e576000848401525b50505050565b6000600282049050600182168061307c57607f821691505b602082108114156130905761308f61319f565b5b50919050565b61309f82613240565b810181811067ffffffffffffffff821117156130be576130bd6131fd565b5b80604052505050565b60006130d282613018565b91507fffffffffffffffffffffffffffffffffffffffffffffffffffffffffffffffff82141561310557613104613141565b5b600182019050919050565b600061311b82613018565b915061312683613018565b92508261313657613135613170565b5b828206905092915050565b7f4e487b7100000000000000000000000000000000000000000000000000000000600052601160045260246000fd5b7f4e487b7100000000000000000000000000000000000000000000000000000000600052601260045260246000fd5b7f4e487b7100000000000000000000000000000000000000000000000000000000600052602260045260246000fd5b7f4e487b7100000000000000000000000000000000000000000000000000000000600052603260045260246000fd5b7f4e487b7100000000000000000000000000000000000000000000000000000000600052604160045260246000fd5b600080fd5b600080fd5b600080fd5b600080fd5b6000601f19601f8301169050919050565b7f746f6b656e4964206d757374206e6f74206265207a65726f0000000000000000600082015250565b7f4552433732313a207472616e7366657220746f206e6f6e20455243373231526560008201527f63656976657220696d706c656d656e7465720000000000000000000000000000602082015250565b7f4552433732313a20746f6b656e20616c7265616479206d696e74656400000000600082015250565b7f4552433732313a207472616e7366657220746f20746865207a65726f2061646460008201527f7265737300000000000000000000000000000000000000000000000000000000602082015250565b7f4552433732313a20617070726f766520746f2063616c6c657200000000000000600082015250565b7f4552433732313a206f70657261746f7220717565727920666f72206e6f6e657860008201527f697374656e7420746f6b656e0000000000000000000000000000000000000000602082015250565b7f596f7572204554482062616c616e6365206d757374206265203e3d207468652060008201527f7072696365206f66207374617200000000000000000000000000000000000000602082015250565b7f726563697069656e7432206d75737420626520746865206f776e6572206f662060008201527f746f6b656e320000000000000000000000000000000000000000000000000000602082015250565b7f4552433732313a20617070726f76652063616c6c6572206973206e6f74206f7760008201527f6e6572206e6f7220617070726f76656420666f7220616c6c0000000000000000602082015250565b7f4552433732313a2062616c616e636520717565727920666f7220746865207a6560008201527f726f206164647265737300000000000000000000000000000000000000000000602082015250565b7f4552433732313a206f776e657220717565727920666f72206e6f6e657869737460008201527f656e7420746f6b656e0000000000000000000000000000000000000000000000602082015250565b7f4f6e6c7920746f6b656e206f776e65722063616e2070757420757020746f6b6560008201527f6e20666f722073656c6c00000000000000000000000000000000000000000000602082015250565b7f4552433732313a206d696e7420746f20746865207a65726f2061646472657373600082015250565b7f726563697069656e7431206d75737420626520746865206f776e6572206f662060008201527f746f6b656e310000000000000000000000000000000000000000000000000000602082015250565b7f4552433732313a20617070726f76656420717565727920666f72206e6f6e657860008201527f697374656e7420746f6b656e0000000000000000000000000000000000000000602082015250565b7f4552433732313a207472616e73666572206f6620746f6b656e2074686174206960008201527f73206e6f74206f776e0000000000000000000000000000000000000000000000602082015250565b7f4552433732314d657461646174613a2055524920717565727920666f72206e6f60008201527f6e6578697374656e7420746f6b656e0000000000000000000000000000000000602082015250565b7f4552433732313a20617070726f76616c20746f2063757272656e74206f776e6560008201527f7200000000000000000000000000000000000000000000000000000000000000602082015250565b7f746f6b656e207072696365206d757374206e6f74206265207a65726f00000000600082015250565b7f4552433732313a207472616e736665722063616c6c6572206973206e6f74206f60008201527f776e6572206e6f7220617070726f766564000000000000000000000000000000602082015250565b7f54686520737461722073686f756c6420626520757020666f722073616c650000600082015250565b6137f181612fae565b81146137fc57600080fd5b50565b61380881612fc0565b811461381357600080fd5b50565b61381f81612fcc565b811461382a57600080fd5b50565b61383681613018565b811461384157600080fd5b5056fea26469706673582212204bee9958c799789acb1d3be4bde0b00be1f4abe084cc89c4b91ca54501d9cbf664736f6c63430008070033",
  "immutableReferences": {},
  "source": "// SPDX-License-Identifier: MIT\n\npragma solidity >=0.4.0 <0.9.0;\nimport \"@openzeppelin/contracts/token/ERC721/ERC721.sol\";\n\ncontract Notary is ERC721 {\n    string private starName = \"Star Notary\";\n    string private starSymbol = \"STN\";\n    uint public tokenId;\n\n\n  struct Star {\n    uint tokenId;\n    string name;\n  }\n  \n\n  mapping(uint => Star) public tokenIdToStarInfo;\n    \n  mapping(uint => uint) public starsForSale;\n    // bool approved;\n  \n  event StarCreated(uint newStarId, string newStarName, address createdBy);\n  constructor() ERC721(starName, starSymbol)  {\n    tokenId = 0;\n  }\n\n\n  function createStar( string memory _name, address _to) public {\n    starName = _name;\n    tokenId += 1;\n    Star memory newStar = Star({ name: starName, tokenId: tokenId});\n    tokenIdToStarInfo[tokenId] = newStar;\n    setApprovalForAll(_to, true);\n    _mint(msg.sender, tokenId);\n    emit StarCreated(tokenId, starName, msg.sender);\n  }\n  \n\n  function putStarUpForSale(uint _tokenId, uint price_, address to_) public {\n      require(_tokenId > 0, \"tokenId must not be zero\");\n      require(price_ > 0, \"token price must not be zero\");\n    require(ownerOf(_tokenId) == msg.sender, \"Only token owner can put up token for sell\");\n  \n    setApprovalForAll(to_, true);\n    starsForSale[_tokenId] = price_;\n\n  }\n    \n  function lookUpTokenIdToStarInfo(uint _tokenId) public view returns(uint _starId, string memory _star, address _starOwner) {\n      _starId = tokenIdToStarInfo[_tokenId].tokenId;\n      _star = tokenIdToStarInfo[_tokenId].name;\n      _starOwner = ownerOf(_starId);\n      \n      \n  }\n\n  // convert address into payable address\n  function _make_payable(address account_)  internal pure returns(address payable) { \n    return payable(account_);\n\n  }\n\n  function buyStar(uint256 _tokenId) public payable {\n    require(starsForSale[_tokenId] > 0, \"The star should be up for sale\"); \n    uint256 starCost = starsForSale[_tokenId];\n    address ownerAddress = ownerOf(_tokenId);\n    require(msg.value >= starCost, \"Your ETH balance must be >= the price of star\");\n    \n    safeTransferFrom(ownerAddress, msg.sender, _tokenId);\n    address  payable payableOwnerAddress = _make_payable(ownerAddress);\n    address payable payableMsgSender = _make_payable(msg.sender);\n    payableOwnerAddress.transfer(starCost);\n    if(msg.value > starCost) {\n      payableMsgSender.transfer(msg.value - starCost);\n    }\n\n\n      emit Transfer(ownerAddress, msg.sender, _tokenId);\n    }\n\n  function transferStar(address _from, address _to, uint256 _tokenId) public {\n    require(ownerOf(_tokenId) == msg.sender);\n\n    transferFrom(_from, _to, _tokenId);\n\n  }\n    \n  function getOwnerOf(uint256 _tokenId) public view returns(address) {\n      return ownerOf(_tokenId);\n  }\n    \n  function getBalanceOf(address _account) public view returns(uint256 tokenAmount) {\n      return tokenAmount = balanceOf(_account);\n  }\n    \n    \n  function exchangeStars(uint256 _token1, address _token2Owner, uint256 _token2, address _token1Owner ) public {\n    require(ownerOf(_token1) == _token1Owner, \"recipient1 must be the owner of token1\");\n    require(ownerOf(_token2) == _token2Owner, \"recipient2 must be the owner of token2\");\n    transferFrom(_token1Owner, _token2Owner, _token1);\n    transferFrom(_token2Owner, _token1Owner, _token2);\n\n  }\n    \n\n\n}\n\n\n\n\n\n",
  "sourcePath": "/home/sprtd/Desktop/Udacity/lesson-3/star-notary-v2/contracts/Notary.sol",
  "compiler": {
    "name": "solc",
    "version": "0.8.7+commit.e28d00a7.Emscripten.clang"
  },
  "schemaVersion": "3.4.3",
  "updatedAt": "2021-09-05T20:08:16.736Z",
  "networkType": "ethereum",
  "devdoc": {
    "kind": "dev",
    "methods": {
      "approve(address,uint256)": {
        "details": "See {IERC721-approve}."
      },
      "balanceOf(address)": {
        "details": "See {IERC721-balanceOf}."
      },
      "getApproved(uint256)": {
        "details": "See {IERC721-getApproved}."
      },
      "isApprovedForAll(address,address)": {
        "details": "See {IERC721-isApprovedForAll}."
      },
      "name()": {
        "details": "See {IERC721Metadata-name}."
      },
      "ownerOf(uint256)": {
        "details": "See {IERC721-ownerOf}."
      },
      "safeTransferFrom(address,address,uint256)": {
        "details": "See {IERC721-safeTransferFrom}."
      },
      "safeTransferFrom(address,address,uint256,bytes)": {
        "details": "See {IERC721-safeTransferFrom}."
      },
      "setApprovalForAll(address,bool)": {
        "details": "See {IERC721-setApprovalForAll}."
      },
      "supportsInterface(bytes4)": {
        "details": "See {IERC165-supportsInterface}."
      },
      "symbol()": {
        "details": "See {IERC721Metadata-symbol}."
      },
      "tokenURI(uint256)": {
        "details": "See {IERC721Metadata-tokenURI}."
      },
      "transferFrom(address,address,uint256)": {
        "details": "See {IERC721-transferFrom}."
      }
    },
    "version": 1
  },
  "userdoc": {
    "kind": "user",
    "methods": {},
    "version": 1
  }
}