{
  "contractName": "Notary",
  "abi": [
    {
      "inputs": [],
      "stateMutability": "nonpayable",
      "type": "constructor"
    },
    {
      "anonymous": false,
      "inputs": [
        {
          "indexed": true,
          "internalType": "address",
          "name": "owner",
          "type": "address"
        },
        {
          "indexed": true,
          "internalType": "address",
          "name": "approved",
          "type": "address"
        },
        {
          "indexed": true,
          "internalType": "uint256",
          "name": "tokenId",
          "type": "uint256"
        }
      ],
      "name": "Approval",
      "type": "event"
    },
    {
      "anonymous": false,
      "inputs": [
        {
          "indexed": true,
          "internalType": "address",
          "name": "owner",
          "type": "address"
        },
        {
          "indexed": true,
          "internalType": "address",
          "name": "operator",
          "type": "address"
        },
        {
          "indexed": false,
          "internalType": "bool",
          "name": "approved",
          "type": "bool"
        }
      ],
      "name": "ApprovalForAll",
      "type": "event"
    },
    {
      "anonymous": false,
      "inputs": [
        {
          "indexed": true,
          "internalType": "address",
          "name": "from",
          "type": "address"
        },
        {
          "indexed": true,
          "internalType": "address",
          "name": "to",
          "type": "address"
        },
        {
          "indexed": true,
          "internalType": "uint256",
          "name": "tokenId",
          "type": "uint256"
        }
      ],
      "name": "Transfer",
      "type": "event"
    },
    {
      "inputs": [
        {
          "internalType": "address",
          "name": "to",
          "type": "address"
        },
        {
          "internalType": "uint256",
          "name": "tokenId",
          "type": "uint256"
        }
      ],
      "name": "approve",
      "outputs": [],
      "stateMutability": "nonpayable",
      "type": "function"
    },
    {
      "inputs": [
        {
          "internalType": "address",
          "name": "owner",
          "type": "address"
        }
      ],
      "name": "balanceOf",
      "outputs": [
        {
          "internalType": "uint256",
          "name": "",
          "type": "uint256"
        }
      ],
      "stateMutability": "view",
      "type": "function",
      "constant": true
    },
    {
      "inputs": [
        {
          "internalType": "uint256",
          "name": "tokenId",
          "type": "uint256"
        }
      ],
      "name": "getApproved",
      "outputs": [
        {
          "internalType": "address",
          "name": "",
          "type": "address"
        }
      ],
      "stateMutability": "view",
      "type": "function",
      "constant": true
    },
    {
      "inputs": [
        {
          "internalType": "address",
          "name": "owner",
          "type": "address"
        },
        {
          "internalType": "address",
          "name": "operator",
          "type": "address"
        }
      ],
      "name": "isApprovedForAll",
      "outputs": [
        {
          "internalType": "bool",
          "name": "",
          "type": "bool"
        }
      ],
      "stateMutability": "view",
      "type": "function",
      "constant": true
    },
    {
      "inputs": [],
      "name": "name",
      "outputs": [
        {
          "internalType": "string",
          "name": "",
          "type": "string"
        }
      ],
      "stateMutability": "view",
      "type": "function",
      "constant": true
    },
    {
      "inputs": [
        {
          "internalType": "uint256",
          "name": "tokenId",
          "type": "uint256"
        }
      ],
      "name": "ownerOf",
      "outputs": [
        {
          "internalType": "address",
          "name": "",
          "type": "address"
        }
      ],
      "stateMutability": "view",
      "type": "function",
      "constant": true
    },
    {
      "inputs": [
        {
          "internalType": "address",
          "name": "from",
          "type": "address"
        },
        {
          "internalType": "address",
          "name": "to",
          "type": "address"
        },
        {
          "internalType": "uint256",
          "name": "tokenId",
          "type": "uint256"
        }
      ],
      "name": "safeTransferFrom",
      "outputs": [],
      "stateMutability": "nonpayable",
      "type": "function"
    },
    {
      "inputs": [
        {
          "internalType": "address",
          "name": "from",
          "type": "address"
        },
        {
          "internalType": "address",
          "name": "to",
          "type": "address"
        },
        {
          "internalType": "uint256",
          "name": "tokenId",
          "type": "uint256"
        },
        {
          "internalType": "bytes",
          "name": "_data",
          "type": "bytes"
        }
      ],
      "name": "safeTransferFrom",
      "outputs": [],
      "stateMutability": "nonpayable",
      "type": "function"
    },
    {
      "inputs": [
        {
          "internalType": "address",
          "name": "operator",
          "type": "address"
        },
        {
          "internalType": "bool",
          "name": "approved",
          "type": "bool"
        }
      ],
      "name": "setApprovalForAll",
      "outputs": [],
      "stateMutability": "nonpayable",
      "type": "function"
    },
    {
      "inputs": [
        {
          "internalType": "uint256",
          "name": "",
          "type": "uint256"
        }
      ],
      "name": "starsForSale",
      "outputs": [
        {
          "internalType": "uint256",
          "name": "",
          "type": "uint256"
        }
      ],
      "stateMutability": "view",
      "type": "function",
      "constant": true
    },
    {
      "inputs": [
        {
          "internalType": "bytes4",
          "name": "interfaceId",
          "type": "bytes4"
        }
      ],
      "name": "supportsInterface",
      "outputs": [
        {
          "internalType": "bool",
          "name": "",
          "type": "bool"
        }
      ],
      "stateMutability": "view",
      "type": "function",
      "constant": true
    },
    {
      "inputs": [],
      "name": "symbol",
      "outputs": [
        {
          "internalType": "string",
          "name": "",
          "type": "string"
        }
      ],
      "stateMutability": "view",
      "type": "function",
      "constant": true
    },
    {
      "inputs": [],
      "name": "tokenId",
      "outputs": [
        {
          "internalType": "uint256",
          "name": "",
          "type": "uint256"
        }
      ],
      "stateMutability": "view",
      "type": "function",
      "constant": true
    },
    {
      "inputs": [
        {
          "internalType": "uint256",
          "name": "",
          "type": "uint256"
        }
      ],
      "name": "tokenIdToStarInfo",
      "outputs": [
        {
          "internalType": "uint256",
          "name": "tokenId",
          "type": "uint256"
        },
        {
          "internalType": "string",
          "name": "name",
          "type": "string"
        }
      ],
      "stateMutability": "view",
      "type": "function",
      "constant": true
    },
    {
      "inputs": [
        {
          "internalType": "uint256",
          "name": "tokenId",
          "type": "uint256"
        }
      ],
      "name": "tokenURI",
      "outputs": [
        {
          "internalType": "string",
          "name": "",
          "type": "string"
        }
      ],
      "stateMutability": "view",
      "type": "function",
      "constant": true
    },
    {
      "inputs": [
        {
          "internalType": "address",
          "name": "from",
          "type": "address"
        },
        {
          "internalType": "address",
          "name": "to",
          "type": "address"
        },
        {
          "internalType": "uint256",
          "name": "tokenId",
          "type": "uint256"
        }
      ],
      "name": "transferFrom",
      "outputs": [],
      "stateMutability": "nonpayable",
      "type": "function"
    },
    {
      "inputs": [
        {
          "internalType": "string",
          "name": "_name",
          "type": "string"
        },
        {
          "internalType": "address",
          "name": "_to",
          "type": "address"
        }
      ],
      "name": "createStar",
      "outputs": [],
      "stateMutability": "nonpayable",
      "type": "function"
    },
    {
      "inputs": [
        {
          "internalType": "uint256",
          "name": "_tokenId",
          "type": "uint256"
        },
        {
          "internalType": "uint256",
          "name": "price_",
          "type": "uint256"
        },
        {
          "internalType": "address",
          "name": "to_",
          "type": "address"
        }
      ],
      "name": "putStarUpForSale",
      "outputs": [],
      "stateMutability": "nonpayable",
      "type": "function"
    },
    {
      "inputs": [
        {
          "internalType": "uint256",
          "name": "_tokenId",
          "type": "uint256"
        }
      ],
      "name": "lookUpTokenIdToStarInfo",
      "outputs": [
        {
          "internalType": "uint256",
          "name": "_starId",
          "type": "uint256"
        },
        {
          "internalType": "string",
          "name": "_star",
          "type": "string"
        },
        {
          "internalType": "address",
          "name": "_starOwner",
          "type": "address"
        }
      ],
      "stateMutability": "view",
      "type": "function",
      "constant": true
    },
    {
      "inputs": [
        {
          "internalType": "uint256",
          "name": "_tokenId",
          "type": "uint256"
        }
      ],
      "name": "buyStar",
      "outputs": [],
      "stateMutability": "payable",
      "type": "function",
      "payable": true
    },
    {
      "inputs": [
        {
          "internalType": "address",
          "name": "_from",
          "type": "address"
        },
        {
          "internalType": "address",
          "name": "_to",
          "type": "address"
        },
        {
          "internalType": "uint256",
          "name": "_tokenId",
          "type": "uint256"
        }
      ],
      "name": "transferStar",
      "outputs": [],
      "stateMutability": "nonpayable",
      "type": "function"
    },
    {
      "inputs": [
        {
          "internalType": "uint256",
          "name": "_tokenId",
          "type": "uint256"
        }
      ],
      "name": "getOwnerOf",
      "outputs": [
        {
          "internalType": "address",
          "name": "",
          "type": "address"
        }
      ],
      "stateMutability": "view",
      "type": "function",
      "constant": true
    },
    {
      "inputs": [
        {
          "internalType": "uint256",
          "name": "_token1",
          "type": "uint256"
        },
        {
          "internalType": "address",
          "name": "_token2Owner",
          "type": "address"
        },
        {
          "internalType": "uint256",
          "name": "_token2",
          "type": "uint256"
        },
        {
          "internalType": "address",
          "name": "_token1Owner",
          "type": "address"
        }
      ],
      "name": "exchangeStars",
      "outputs": [],
      "stateMutability": "nonpayable",
      "type": "function"
    }
  ],
  "bytecode": "0x60806040526040518060400160405280600b81526020017f53746172204e6f74617279000000000000000000000000000000000000000000815250600690805190602001906200005192919062000216565b506040518060400160405280600381526020017f53544e0000000000000000000000000000000000000000000000000000000000815250600790805190602001906200009f92919062000216565b50348015620000ad57600080fd5b5060068054620000bd90620002c6565b80601f0160208091040260200160405190810160405280929190818152602001828054620000eb90620002c6565b80156200013c5780601f1062000110576101008083540402835291602001916200013c565b820191906000526020600020905b8154815290600101906020018083116200011e57829003601f168201915b5050505050600780546200015090620002c6565b80601f01602080910402602001604051908101604052809291908181526020018280546200017e90620002c6565b8015620001cf5780601f10620001a357610100808354040283529160200191620001cf565b820191906000526020600020905b815481529060010190602001808311620001b157829003601f168201915b50505050508160009080519060200190620001ec92919062000216565b5080600190805190602001906200020592919062000216565b50505060006008819055506200032b565b8280546200022490620002c6565b90600052602060002090601f01602090048101928262000248576000855562000294565b82601f106200026357805160ff191683800117855562000294565b8280016001018555821562000294579182015b828111156200029357825182559160200191906001019062000276565b5b509050620002a39190620002a7565b5090565b5b80821115620002c2576000816000905550600101620002a8565b5090565b60006002820490506001821680620002df57607f821691505b60208210811415620002f657620002f5620002fc565b5b50919050565b7f4e487b7100000000000000000000000000000000000000000000000000000000600052602260045260246000fd5b61370f806200033b6000396000f3fe6080604052600436106101405760003560e01c80633d912858116100b6578063836387101161006f578063836387101461048457806395d89b41146104c1578063a22cb465146104ec578063b88d4fde14610515578063c87b56dd1461053e578063e985e9c51461057b57610140565b80633d9128581461035057806342842e0e1461038f5780636352211e146103b857806370a08231146103f5578063710990bc146104325780637d2ded971461045b57610140565b806317d70f7c1161010857806317d70f7c146102505780631967fd981461027b57806323b872dd146102b95780632f1c34ef146102e257806337706d0c146102fe5780633b06565a1461032757610140565b806301ffc9a7146101455780630564b1301461018257806306fdde03146101bf578063081812fc146101ea578063095ea7b314610227575b600080fd5b34801561015157600080fd5b5061016c60048036038101906101679190612381565b6105b8565b6040516101799190612958565b60405180910390f35b34801561018e57600080fd5b506101a960048036038101906101a49190612437565b61069a565b6040516101b69190612c35565b60405180910390f35b3480156101cb57600080fd5b506101d46106b2565b6040516101e19190612973565b60405180910390f35b3480156101f657600080fd5b50610211600480360381019061020c9190612437565b610744565b60405161021e91906128f1565b60405180910390f35b34801561023357600080fd5b5061024e60048036038101906102499190612341565b6107c9565b005b34801561025c57600080fd5b506102656108e1565b6040516102729190612c35565b60405180910390f35b34801561028757600080fd5b506102a2600480360381019061029d9190612437565b6108e7565b6040516102b0929190612c50565b60405180910390f35b3480156102c557600080fd5b506102e060048036038101906102db919061222b565b610993565b005b6102fc60048036038101906102f79190612437565b6109f3565b005b34801561030a57600080fd5b506103256004803603810190610320919061222b565b610bda565b005b34801561033357600080fd5b5061034e600480360381019061034991906123db565b610c2a565b005b34801561035c57600080fd5b5061037760048036038101906103729190612437565b610d5c565b60405161038693929190612c80565b60405180910390f35b34801561039b57600080fd5b506103b660048036038101906103b1919061222b565b610e2e565b005b3480156103c457600080fd5b506103df60048036038101906103da9190612437565b610e4e565b6040516103ec91906128f1565b60405180910390f35b34801561040157600080fd5b5061041c600480360381019061041791906121be565b610f00565b6040516104299190612c35565b60405180910390f35b34801561043e57600080fd5b50610459600480360381019061045491906124cb565b610fb8565b005b34801561046757600080fd5b50610482600480360381019061047d9190612464565b6110dc565b005b34801561049057600080fd5b506104ab60048036038101906104a69190612437565b6111e4565b6040516104b891906128f1565b60405180910390f35b3480156104cd57600080fd5b506104d66111f6565b6040516104e39190612973565b60405180910390f35b3480156104f857600080fd5b50610513600480360381019061050e9190612301565b611288565b005b34801561052157600080fd5b5061053c6004803603810190610537919061227e565b611409565b005b34801561054a57600080fd5b5061056560048036038101906105609190612437565b61146b565b6040516105729190612973565b60405180910390f35b34801561058757600080fd5b506105a2600480360381019061059d91906121eb565b611512565b6040516105af9190612958565b60405180910390f35b60007f80ac58cd000000000000000000000000000000000000000000000000000000007bffffffffffffffffffffffffffffffffffffffffffffffffffffffff1916827bffffffffffffffffffffffffffffffffffffffffffffffffffffffff1916148061068357507f5b5e139f000000000000000000000000000000000000000000000000000000007bffffffffffffffffffffffffffffffffffffffffffffffffffffffff1916827bffffffffffffffffffffffffffffffffffffffffffffffffffffffff1916145b806106935750610692826115a6565b5b9050919050565b600a6020528060005260406000206000915090505481565b6060600080546106c190612ef9565b80601f01602080910402602001604051908101604052809291908181526020018280546106ed90612ef9565b801561073a5780601f1061070f5761010080835404028352916020019161073a565b820191906000526020600020905b81548152906001019060200180831161071d57829003601f168201915b5050505050905090565b600061074f82611610565b61078e576040517f08c379a000000000000000000000000000000000000000000000000000000000815260040161078590612b55565b60405180910390fd5b6004600083815260200190815260200160002060009054906101000a900473ffffffffffffffffffffffffffffffffffffffff169050919050565b60006107d482610e4e565b90508073ffffffffffffffffffffffffffffffffffffffff168373ffffffffffffffffffffffffffffffffffffffff161415610845576040517f08c379a000000000000000000000000000000000000000000000000000000000815260040161083c90612bb5565b60405180910390fd5b8073ffffffffffffffffffffffffffffffffffffffff1661086461167c565b73ffffffffffffffffffffffffffffffffffffffff16148061089357506108928161088d61167c565b611512565b5b6108d2576040517f08c379a00000000000000000000000000000000000000000000000000000000081526004016108c990612a95565b60405180910390fd5b6108dc8383611684565b505050565b60085481565b600960205280600052604060002060009150905080600001549080600101805461091090612ef9565b80601f016020809104026020016040519081016040528092919081815260200182805461093c90612ef9565b80156109895780601f1061095e57610100808354040283529160200191610989565b820191906000526020600020905b81548152906001019060200180831161096c57829003601f168201915b5050505050905082565b6109a461099e61167c565b8261173d565b6109e3576040517f08c379a00000000000000000000000000000000000000000000000000000000081526004016109da90612bf5565b60405180910390fd5b6109ee83838361181b565b505050565b6000600a60008381526020019081526020016000205411610a49576040517f08c379a0000000000000000000000000000000000000000000000000000000008152600401610a4090612c15565b60405180910390fd5b6000600a60008381526020019081526020016000205490506000610a6c83610e4e565b905081341015610ab1576040517f08c379a0000000000000000000000000000000000000000000000000000000008152600401610aa890612a55565b60405180910390fd5b610abc813385610e2e565b6000610ac782611a77565b90506000610ad433611a77565b90508173ffffffffffffffffffffffffffffffffffffffff166108fc859081150290604051600060405180830381858888f19350505050158015610b1c573d6000803e3d6000fd5b5083341115610b78578073ffffffffffffffffffffffffffffffffffffffff166108fc8534610b4b9190612e0f565b9081150290604051600060405180830381858888f19350505050158015610b76573d6000803e3d6000fd5b505b843373ffffffffffffffffffffffffffffffffffffffff168473ffffffffffffffffffffffffffffffffffffffff167fddf252ad1be2c89b69c2b068fc378daa952ba7f163c4a11628f55a4df523b3ef60405160405180910390a45050505050565b3373ffffffffffffffffffffffffffffffffffffffff16610bfa82610e4e565b73ffffffffffffffffffffffffffffffffffffffff1614610c1a57600080fd5b610c25838383610993565b505050565b8160069080519060200190610c40929190611fd2565b50600160086000828254610c549190612d88565b9250508190555060006040518060400160405280600854815260200160068054610c7d90612ef9565b80601f0160208091040260200160405190810160405280929190818152602001828054610ca990612ef9565b8015610cf65780601f10610ccb57610100808354040283529160200191610cf6565b820191906000526020600020905b815481529060010190602001808311610cd957829003601f168201915b5050505050815250905080600960006008548152602001908152602001600020600082015181600001556020820151816001019080519060200190610d3c929190611fd2565b50905050610d4b826001611288565b610d5733600854611a81565b505050565b60006060600060096000858152602001908152602001600020600001549250600960008581526020019081526020016000206001018054610d9c90612ef9565b80601f0160208091040260200160405190810160405280929190818152602001828054610dc890612ef9565b8015610e155780601f10610dea57610100808354040283529160200191610e15565b820191906000526020600020905b815481529060010190602001808311610df857829003601f168201915b50505050509150610e2583610e4e565b90509193909250565b610e4983838360405180602001604052806000815250611409565b505050565b6000806002600084815260200190815260200160002060009054906101000a900473ffffffffffffffffffffffffffffffffffffffff169050600073ffffffffffffffffffffffffffffffffffffffff168173ffffffffffffffffffffffffffffffffffffffff161415610ef7576040517f08c379a0000000000000000000000000000000000000000000000000000000008152600401610eee90612ad5565b60405180910390fd5b80915050919050565b60008073ffffffffffffffffffffffffffffffffffffffff168273ffffffffffffffffffffffffffffffffffffffff161415610f71576040517f08c379a0000000000000000000000000000000000000000000000000000000008152600401610f6890612ab5565b60405180910390fd5b600360008373ffffffffffffffffffffffffffffffffffffffff1673ffffffffffffffffffffffffffffffffffffffff168152602001908152602001600020549050919050565b60008311610ffb576040517f08c379a0000000000000000000000000000000000000000000000000000000008152600401610ff290612995565b60405180910390fd5b6000821161103e576040517f08c379a000000000000000000000000000000000000000000000000000000000815260040161103590612bd5565b60405180910390fd5b3373ffffffffffffffffffffffffffffffffffffffff1661105e84610e4e565b73ffffffffffffffffffffffffffffffffffffffff16146110b4576040517f08c379a00000000000000000000000000000000000000000000000000000000081526004016110ab90612af5565b60405180910390fd5b6110bf816001611288565b81600a600085815260200190815260200160002081905550505050565b8073ffffffffffffffffffffffffffffffffffffffff166110fc85610e4e565b73ffffffffffffffffffffffffffffffffffffffff1614611152576040517f08c379a000000000000000000000000000000000000000000000000000000000815260040161114990612b35565b60405180910390fd5b8273ffffffffffffffffffffffffffffffffffffffff1661117283610e4e565b73ffffffffffffffffffffffffffffffffffffffff16146111c8576040517f08c379a00000000000000000000000000000000000000000000000000000000081526004016111bf90612a75565b60405180910390fd5b6111d3818486610993565b6111de838284610993565b50505050565b60006111ef82610e4e565b9050919050565b60606001805461120590612ef9565b80601f016020809104026020016040519081016040528092919081815260200182805461123190612ef9565b801561127e5780601f106112535761010080835404028352916020019161127e565b820191906000526020600020905b81548152906001019060200180831161126157829003601f168201915b5050505050905090565b61129061167c565b73ffffffffffffffffffffffffffffffffffffffff168273ffffffffffffffffffffffffffffffffffffffff1614156112fe576040517f08c379a00000000000000000000000000000000000000000000000000000000081526004016112f590612a15565b60405180910390fd5b806005600061130b61167c565b73ffffffffffffffffffffffffffffffffffffffff1673ffffffffffffffffffffffffffffffffffffffff16815260200190815260200160002060008473ffffffffffffffffffffffffffffffffffffffff1673ffffffffffffffffffffffffffffffffffffffff16815260200190815260200160002060006101000a81548160ff0219169083151502179055508173ffffffffffffffffffffffffffffffffffffffff166113b861167c565b73ffffffffffffffffffffffffffffffffffffffff167f17307eab39ab6107e8899845ad3d59bd9653f200f220920489ca2b5937696c31836040516113fd9190612958565b60405180910390a35050565b61141a61141461167c565b8361173d565b611459576040517f08c379a000000000000000000000000000000000000000000000000000000000815260040161145090612bf5565b60405180910390fd5b61146584848484611c4f565b50505050565b606061147682611610565b6114b5576040517f08c379a00000000000000000000000000000000000000000000000000000000081526004016114ac90612b95565b60405180910390fd5b60006114bf611cab565b905060008151116114df576040518060200160405280600081525061150a565b806114e984611cc2565b6040516020016114fa9291906128cd565b6040516020818303038152906040525b915050919050565b6000600560008473ffffffffffffffffffffffffffffffffffffffff1673ffffffffffffffffffffffffffffffffffffffff16815260200190815260200160002060008373ffffffffffffffffffffffffffffffffffffffff1673ffffffffffffffffffffffffffffffffffffffff16815260200190815260200160002060009054906101000a900460ff16905092915050565b60007f01ffc9a7000000000000000000000000000000000000000000000000000000007bffffffffffffffffffffffffffffffffffffffffffffffffffffffff1916827bffffffffffffffffffffffffffffffffffffffffffffffffffffffff1916149050919050565b60008073ffffffffffffffffffffffffffffffffffffffff166002600084815260200190815260200160002060009054906101000a900473ffffffffffffffffffffffffffffffffffffffff1673ffffffffffffffffffffffffffffffffffffffff1614159050919050565b600033905090565b816004600083815260200190815260200160002060006101000a81548173ffffffffffffffffffffffffffffffffffffffff021916908373ffffffffffffffffffffffffffffffffffffffff160217905550808273ffffffffffffffffffffffffffffffffffffffff166116f783610e4e565b73ffffffffffffffffffffffffffffffffffffffff167f8c5be1e5ebec7d5bd14f71427d1e84f3dd0314c0f7b2291e5b200ac8c7c3b92560405160405180910390a45050565b600061174882611610565b611787576040517f08c379a000000000000000000000000000000000000000000000000000000000815260040161177e90612a35565b60405180910390fd5b600061179283610e4e565b90508073ffffffffffffffffffffffffffffffffffffffff168473ffffffffffffffffffffffffffffffffffffffff16148061180157508373ffffffffffffffffffffffffffffffffffffffff166117e984610744565b73ffffffffffffffffffffffffffffffffffffffff16145b8061181257506118118185611512565b5b91505092915050565b8273ffffffffffffffffffffffffffffffffffffffff1661183b82610e4e565b73ffffffffffffffffffffffffffffffffffffffff1614611891576040517f08c379a000000000000000000000000000000000000000000000000000000000815260040161188890612b75565b60405180910390fd5b600073ffffffffffffffffffffffffffffffffffffffff168273ffffffffffffffffffffffffffffffffffffffff161415611901576040517f08c379a00000000000000000000000000000000000000000000000000000000081526004016118f8906129f5565b60405180910390fd5b61190c838383611e23565b611917600082611684565b6001600360008573ffffffffffffffffffffffffffffffffffffffff1673ffffffffffffffffffffffffffffffffffffffff16815260200190815260200160002060008282546119679190612e0f565b925050819055506001600360008473ffffffffffffffffffffffffffffffffffffffff1673ffffffffffffffffffffffffffffffffffffffff16815260200190815260200160002060008282546119be9190612d88565b92505081905550816002600083815260200190815260200160002060006101000a81548173ffffffffffffffffffffffffffffffffffffffff021916908373ffffffffffffffffffffffffffffffffffffffff160217905550808273ffffffffffffffffffffffffffffffffffffffff168473ffffffffffffffffffffffffffffffffffffffff167fddf252ad1be2c89b69c2b068fc378daa952ba7f163c4a11628f55a4df523b3ef60405160405180910390a4505050565b6000819050919050565b600073ffffffffffffffffffffffffffffffffffffffff168273ffffffffffffffffffffffffffffffffffffffff161415611af1576040517f08c379a0000000000000000000000000000000000000000000000000000000008152600401611ae890612b15565b60405180910390fd5b611afa81611610565b15611b3a576040517f08c379a0000000000000000000000000000000000000000000000000000000008152600401611b31906129d5565b60405180910390fd5b611b4660008383611e23565b6001600360008473ffffffffffffffffffffffffffffffffffffffff1673ffffffffffffffffffffffffffffffffffffffff1681526020019081526020016000206000828254611b969190612d88565b92505081905550816002600083815260200190815260200160002060006101000a81548173ffffffffffffffffffffffffffffffffffffffff021916908373ffffffffffffffffffffffffffffffffffffffff160217905550808273ffffffffffffffffffffffffffffffffffffffff16600073ffffffffffffffffffffffffffffffffffffffff167fddf252ad1be2c89b69c2b068fc378daa952ba7f163c4a11628f55a4df523b3ef60405160405180910390a45050565b611c5a84848461181b565b611c6684848484611e28565b611ca5576040517f08c379a0000000000000000000000000000000000000000000000000000000008152600401611c9c906129b5565b60405180910390fd5b50505050565b606060405180602001604052806000815250905090565b60606000821415611d0a576040518060400160405280600181526020017f30000000000000000000000000000000000000000000000000000000000000008152509050611e1e565b600082905060005b60008214611d3c578080611d2590612f5c565b915050600a82611d359190612dde565b9150611d12565b60008167ffffffffffffffff811115611d5857611d57613092565b5b6040519080825280601f01601f191660200182016040528015611d8a5781602001600182028036833780820191505090505b5090505b60008514611e1757600182611da39190612e0f565b9150600a85611db29190612fa5565b6030611dbe9190612d88565b60f81b818381518110611dd457611dd3613063565b5b60200101907effffffffffffffffffffffffffffffffffffffffffffffffffffffffffffff1916908160001a905350600a85611e109190612dde565b9450611d8e565b8093505050505b919050565b505050565b6000611e498473ffffffffffffffffffffffffffffffffffffffff16611fbf565b15611fb2578373ffffffffffffffffffffffffffffffffffffffff1663150b7a02611e7261167c565b8786866040518563ffffffff1660e01b8152600401611e94949392919061290c565b602060405180830381600087803b158015611eae57600080fd5b505af1925050508015611edf57506040513d601f19601f82011682018060405250810190611edc91906123ae565b60015b611f62573d8060008114611f0f576040519150601f19603f3d011682016040523d82523d6000602084013e611f14565b606091505b50600081511415611f5a576040517f08c379a0000000000000000000000000000000000000000000000000000000008152600401611f51906129b5565b60405180910390fd5b805181602001fd5b63150b7a0260e01b7bffffffffffffffffffffffffffffffffffffffffffffffffffffffff1916817bffffffffffffffffffffffffffffffffffffffffffffffffffffffff191614915050611fb7565b600190505b949350505050565b600080823b905060008111915050919050565b828054611fde90612ef9565b90600052602060002090601f0160209004810192826120005760008555612047565b82601f1061201957805160ff1916838001178555612047565b82800160010185558215612047579182015b8281111561204657825182559160200191906001019061202b565b5b5090506120549190612058565b5090565b5b80821115612071576000816000905550600101612059565b5090565b600061208861208384612ce3565b612cbe565b9050828152602081018484840111156120a4576120a36130c6565b5b6120af848285612eb7565b509392505050565b60006120ca6120c584612d14565b612cbe565b9050828152602081018484840111156120e6576120e56130c6565b5b6120f1848285612eb7565b509392505050565b6000813590506121088161367d565b92915050565b60008135905061211d81613694565b92915050565b600081359050612132816136ab565b92915050565b600081519050612147816136ab565b92915050565b600082601f830112612162576121616130c1565b5b8135612172848260208601612075565b91505092915050565b600082601f8301126121905761218f6130c1565b5b81356121a08482602086016120b7565b91505092915050565b6000813590506121b8816136c2565b92915050565b6000602082840312156121d4576121d36130d0565b5b60006121e2848285016120f9565b91505092915050565b60008060408385031215612202576122016130d0565b5b6000612210858286016120f9565b9250506020612221858286016120f9565b9150509250929050565b600080600060608486031215612244576122436130d0565b5b6000612252868287016120f9565b9350506020612263868287016120f9565b9250506040612274868287016121a9565b9150509250925092565b60008060008060808587031215612298576122976130d0565b5b60006122a6878288016120f9565b94505060206122b7878288016120f9565b93505060406122c8878288016121a9565b925050606085013567ffffffffffffffff8111156122e9576122e86130cb565b5b6122f58782880161214d565b91505092959194509250565b60008060408385031215612318576123176130d0565b5b6000612326858286016120f9565b92505060206123378582860161210e565b9150509250929050565b60008060408385031215612358576123576130d0565b5b6000612366858286016120f9565b9250506020612377858286016121a9565b9150509250929050565b600060208284031215612397576123966130d0565b5b60006123a584828501612123565b91505092915050565b6000602082840312156123c4576123c36130d0565b5b60006123d284828501612138565b91505092915050565b600080604083850312156123f2576123f16130d0565b5b600083013567ffffffffffffffff8111156124105761240f6130cb565b5b61241c8582860161217b565b925050602061242d858286016120f9565b9150509250929050565b60006020828403121561244d5761244c6130d0565b5b600061245b848285016121a9565b91505092915050565b6000806000806080858703121561247e5761247d6130d0565b5b600061248c878288016121a9565b945050602061249d878288016120f9565b93505060406124ae878288016121a9565b92505060606124bf878288016120f9565b91505092959194509250565b6000806000606084860312156124e4576124e36130d0565b5b60006124f2868287016121a9565b9350506020612503868287016121a9565b9250506040612514868287016120f9565b9150509250925092565b61252781612e43565b82525050565b61253681612e55565b82525050565b600061254782612d45565b6125518185612d5b565b9350612561818560208601612ec6565b61256a816130d5565b840191505092915050565b600061258082612d50565b61258a8185612d6c565b935061259a818560208601612ec6565b6125a3816130d5565b840191505092915050565b60006125b982612d50565b6125c38185612d7d565b93506125d3818560208601612ec6565b80840191505092915050565b60006125ec601883612d6c565b91506125f7826130e6565b602082019050919050565b600061260f603283612d6c565b915061261a8261310f565b604082019050919050565b6000612632601c83612d6c565b915061263d8261315e565b602082019050919050565b6000612655602483612d6c565b915061266082613187565b604082019050919050565b6000612678601983612d6c565b9150612683826131d6565b602082019050919050565b600061269b602c83612d6c565b91506126a6826131ff565b604082019050919050565b60006126be602d83612d6c565b91506126c98261324e565b604082019050919050565b60006126e1602683612d6c565b91506126ec8261329d565b604082019050919050565b6000612704603883612d6c565b915061270f826132ec565b604082019050919050565b6000612727602a83612d6c565b91506127328261333b565b604082019050919050565b600061274a602983612d6c565b91506127558261338a565b604082019050919050565b600061276d602a83612d6c565b9150612778826133d9565b604082019050919050565b6000612790602083612d6c565b915061279b82613428565b602082019050919050565b60006127b3602683612d6c565b91506127be82613451565b604082019050919050565b60006127d6602c83612d6c565b91506127e1826134a0565b604082019050919050565b60006127f9602983612d6c565b9150612804826134ef565b604082019050919050565b600061281c602f83612d6c565b91506128278261353e565b604082019050919050565b600061283f602183612d6c565b915061284a8261358d565b604082019050919050565b6000612862601c83612d6c565b915061286d826135dc565b602082019050919050565b6000612885603183612d6c565b915061289082613605565b604082019050919050565b60006128a8601e83612d6c565b91506128b382613654565b602082019050919050565b6128c781612ead565b82525050565b60006128d982856125ae565b91506128e582846125ae565b91508190509392505050565b6000602082019050612906600083018461251e565b92915050565b6000608082019050612921600083018761251e565b61292e602083018661251e565b61293b60408301856128be565b818103606083015261294d818461253c565b905095945050505050565b600060208201905061296d600083018461252d565b92915050565b6000602082019050818103600083015261298d8184612575565b905092915050565b600060208201905081810360008301526129ae816125df565b9050919050565b600060208201905081810360008301526129ce81612602565b9050919050565b600060208201905081810360008301526129ee81612625565b9050919050565b60006020820190508181036000830152612a0e81612648565b9050919050565b60006020820190508181036000830152612a2e8161266b565b9050919050565b60006020820190508181036000830152612a4e8161268e565b9050919050565b60006020820190508181036000830152612a6e816126b1565b9050919050565b60006020820190508181036000830152612a8e816126d4565b9050919050565b60006020820190508181036000830152612aae816126f7565b9050919050565b60006020820190508181036000830152612ace8161271a565b9050919050565b60006020820190508181036000830152612aee8161273d565b9050919050565b60006020820190508181036000830152612b0e81612760565b9050919050565b60006020820190508181036000830152612b2e81612783565b9050919050565b60006020820190508181036000830152612b4e816127a6565b9050919050565b60006020820190508181036000830152612b6e816127c9565b9050919050565b60006020820190508181036000830152612b8e816127ec565b9050919050565b60006020820190508181036000830152612bae8161280f565b9050919050565b60006020820190508181036000830152612bce81612832565b9050919050565b60006020820190508181036000830152612bee81612855565b9050919050565b60006020820190508181036000830152612c0e81612878565b9050919050565b60006020820190508181036000830152612c2e8161289b565b9050919050565b6000602082019050612c4a60008301846128be565b92915050565b6000604082019050612c6560008301856128be565b8181036020830152612c778184612575565b90509392505050565b6000606082019050612c9560008301866128be565b8181036020830152612ca78185612575565b9050612cb6604083018461251e565b949350505050565b6000612cc8612cd9565b9050612cd48282612f2b565b919050565b6000604051905090565b600067ffffffffffffffff821115612cfe57612cfd613092565b5b612d07826130d5565b9050602081019050919050565b600067ffffffffffffffff821115612d2f57612d2e613092565b5b612d38826130d5565b9050602081019050919050565b600081519050919050565b600081519050919050565b600082825260208201905092915050565b600082825260208201905092915050565b600081905092915050565b6000612d9382612ead565b9150612d9e83612ead565b9250827fffffffffffffffffffffffffffffffffffffffffffffffffffffffffffffffff03821115612dd357612dd2612fd6565b5b828201905092915050565b6000612de982612ead565b9150612df483612ead565b925082612e0457612e03613005565b5b828204905092915050565b6000612e1a82612ead565b9150612e2583612ead565b925082821015612e3857612e37612fd6565b5b828203905092915050565b6000612e4e82612e8d565b9050919050565b60008115159050919050565b60007fffffffff0000000000000000000000000000000000000000000000000000000082169050919050565b600073ffffffffffffffffffffffffffffffffffffffff82169050919050565b6000819050919050565b82818337600083830152505050565b60005b83811015612ee4578082015181840152602081019050612ec9565b83811115612ef3576000848401525b50505050565b60006002820490506001821680612f1157607f821691505b60208210811415612f2557612f24613034565b5b50919050565b612f34826130d5565b810181811067ffffffffffffffff82111715612f5357612f52613092565b5b80604052505050565b6000612f6782612ead565b91507fffffffffffffffffffffffffffffffffffffffffffffffffffffffffffffffff821415612f9a57612f99612fd6565b5b600182019050919050565b6000612fb082612ead565b9150612fbb83612ead565b925082612fcb57612fca613005565b5b828206905092915050565b7f4e487b7100000000000000000000000000000000000000000000000000000000600052601160045260246000fd5b7f4e487b7100000000000000000000000000000000000000000000000000000000600052601260045260246000fd5b7f4e487b7100000000000000000000000000000000000000000000000000000000600052602260045260246000fd5b7f4e487b7100000000000000000000000000000000000000000000000000000000600052603260045260246000fd5b7f4e487b7100000000000000000000000000000000000000000000000000000000600052604160045260246000fd5b600080fd5b600080fd5b600080fd5b600080fd5b6000601f19601f8301169050919050565b7f746f6b656e4964206d757374206e6f74206265207a65726f0000000000000000600082015250565b7f4552433732313a207472616e7366657220746f206e6f6e20455243373231526560008201527f63656976657220696d706c656d656e7465720000000000000000000000000000602082015250565b7f4552433732313a20746f6b656e20616c7265616479206d696e74656400000000600082015250565b7f4552433732313a207472616e7366657220746f20746865207a65726f2061646460008201527f7265737300000000000000000000000000000000000000000000000000000000602082015250565b7f4552433732313a20617070726f766520746f2063616c6c657200000000000000600082015250565b7f4552433732313a206f70657261746f7220717565727920666f72206e6f6e657860008201527f697374656e7420746f6b656e0000000000000000000000000000000000000000602082015250565b7f596f7572204554482062616c616e6365206d757374206265203e3d207468652060008201527f7072696365206f66207374617200000000000000000000000000000000000000602082015250565b7f726563697069656e7432206d75737420626520746865206f776e6572206f662060008201527f746f6b656e320000000000000000000000000000000000000000000000000000602082015250565b7f4552433732313a20617070726f76652063616c6c6572206973206e6f74206f7760008201527f6e6572206e6f7220617070726f76656420666f7220616c6c0000000000000000602082015250565b7f4552433732313a2062616c616e636520717565727920666f7220746865207a6560008201527f726f206164647265737300000000000000000000000000000000000000000000602082015250565b7f4552433732313a206f776e657220717565727920666f72206e6f6e657869737460008201527f656e7420746f6b656e0000000000000000000000000000000000000000000000602082015250565b7f4f6e6c7920746f6b656e206f776e65722063616e2070757420757020746f6b6560008201527f6e20666f722073656c6c00000000000000000000000000000000000000000000602082015250565b7f4552433732313a206d696e7420746f20746865207a65726f2061646472657373600082015250565b7f726563697069656e7431206d75737420626520746865206f776e6572206f662060008201527f746f6b656e310000000000000000000000000000000000000000000000000000602082015250565b7f4552433732313a20617070726f76656420717565727920666f72206e6f6e657860008201527f697374656e7420746f6b656e0000000000000000000000000000000000000000602082015250565b7f4552433732313a207472616e73666572206f6620746f6b656e2074686174206960008201527f73206e6f74206f776e0000000000000000000000000000000000000000000000602082015250565b7f4552433732314d657461646174613a2055524920717565727920666f72206e6f60008201527f6e6578697374656e7420746f6b656e0000000000000000000000000000000000602082015250565b7f4552433732313a20617070726f76616c20746f2063757272656e74206f776e6560008201527f7200000000000000000000000000000000000000000000000000000000000000602082015250565b7f746f6b656e207072696365206d757374206e6f74206265207a65726f00000000600082015250565b7f4552433732313a207472616e736665722063616c6c6572206973206e6f74206f60008201527f776e6572206e6f7220617070726f766564000000000000000000000000000000602082015250565b7f54686520737461722073686f756c6420626520757020666f722073616c650000600082015250565b61368681612e43565b811461369157600080fd5b50565b61369d81612e55565b81146136a857600080fd5b50565b6136b481612e61565b81146136bf57600080fd5b50565b6136cb81612ead565b81146136d657600080fd5b5056fea264697066735822122021014538f62f37029501caff799f49afc4b02c471e7ad450df095eca6678b43264736f6c63430008070033",
  "immutableReferences": {},
  "source": "// SPDX-License-Identifier: MIT\n\npragma solidity >=0.4.0 <0.9.0;\nimport \"@openzeppelin/contracts/token/ERC721/ERC721.sol\";\n\ncontract Notary is ERC721 {\n    string private starName = \"Star Notary\";\n    string private starSymbol = \"STN\";\n    uint public tokenId;\n\n\n  struct Star {\n    uint tokenId;\n    string name;\n  }\n  \n\n  mapping(uint => Star) public tokenIdToStarInfo;\n    \n  mapping(uint => uint) public starsForSale;\n    // bool approved;\n    \n  constructor() ERC721(starName, starSymbol)  {\n    tokenId = 0;\n  }\n\n\n\n  function createStar( string memory _name, address _to) public {\n    starName = _name;\n    tokenId += 1;\n    Star memory newStar = Star({ name: starName, tokenId: tokenId});\n    tokenIdToStarInfo[tokenId] = newStar;\n    setApprovalForAll(_to, true);\n    _mint(msg.sender, tokenId);\n  }\n  \n\n  function putStarUpForSale(uint _tokenId, uint price_, address to_) public {\n      require(_tokenId > 0, \"tokenId must not be zero\");\n      require(price_ > 0, \"token price must not be zero\");\n    require(ownerOf(_tokenId) == msg.sender, \"Only token owner can put up token for sell\");\n  \n    setApprovalForAll(to_, true);\n    starsForSale[_tokenId] = price_;\n\n  }\n    \n  function lookUpTokenIdToStarInfo(uint _tokenId) public view returns(uint _starId, string memory _star, address _starOwner) {\n      _starId = tokenIdToStarInfo[_tokenId].tokenId;\n      _star = tokenIdToStarInfo[_tokenId].name;\n      _starOwner = ownerOf(_starId);\n      \n      \n  }\n\n  // convert address into payable address\n  function _make_payable(address account_)  internal pure returns(address payable) { \n    return payable(account_);\n\n  }\n\n  function buyStar(uint256 _tokenId) public payable {\n    require(starsForSale[_tokenId] > 0, \"The star should be up for sale\"); \n    uint256 starCost = starsForSale[_tokenId];\n    address ownerAddress = ownerOf(_tokenId);\n    require(msg.value >= starCost, \"Your ETH balance must be >= the price of star\");\n    \n    safeTransferFrom(ownerAddress, msg.sender, _tokenId);\n    address  payable payableOwnerAddress = _make_payable(ownerAddress);\n    address payable payableMsgSender = _make_payable(msg.sender);\n    payableOwnerAddress.transfer(starCost);\n    if(msg.value > starCost) {\n      payableMsgSender.transfer(msg.value - starCost);\n    }\n\n\n      emit Transfer(ownerAddress, msg.sender, _tokenId);\n    }\n\n  function transferStar(address _from, address _to, uint256 _tokenId) public {\n    require(ownerOf(_tokenId) == msg.sender);\n\n    transferFrom(_from, _to, _tokenId);\n\n  }\n    \n  function getOwnerOf(uint256 _tokenId) public view returns(address) {\n      return ownerOf(_tokenId);\n  }\n    \n    \n    \n  function exchangeStars(uint256 _token1, address _token2Owner, uint256 _token2, address _token1Owner ) public {\n      require(ownerOf(_token1) == _token1Owner, \"recipient1 must be the owner of token1\");\n      require(ownerOf(_token2) == _token2Owner, \"recipient2 must be the owner of token2\");\n      transferFrom(_token1Owner, _token2Owner, _token1);\n      transferFrom(_token2Owner, _token1Owner, _token2);\n\n  }\n    \n\n\n}\n\n\n\n\n\n",
  "sourcePath": "/home/sprtd/Desktop/Udacity/lesson-3/star-notary-v2/contracts/Notary.sol",
  "compiler": {
    "name": "solc",
    "version": "0.8.7+commit.e28d00a7.Emscripten.clang"
  },
  "schemaVersion": "3.4.3",
  "updatedAt": "2021-09-03T16:17:17.124Z",
  "networkType": "ethereum",
  "devdoc": {
    "kind": "dev",
    "methods": {
      "approve(address,uint256)": {
        "details": "See {IERC721-approve}."
      },
      "balanceOf(address)": {
        "details": "See {IERC721-balanceOf}."
      },
      "getApproved(uint256)": {
        "details": "See {IERC721-getApproved}."
      },
      "isApprovedForAll(address,address)": {
        "details": "See {IERC721-isApprovedForAll}."
      },
      "name()": {
        "details": "See {IERC721Metadata-name}."
      },
      "ownerOf(uint256)": {
        "details": "See {IERC721-ownerOf}."
      },
      "safeTransferFrom(address,address,uint256)": {
        "details": "See {IERC721-safeTransferFrom}."
      },
      "safeTransferFrom(address,address,uint256,bytes)": {
        "details": "See {IERC721-safeTransferFrom}."
      },
      "setApprovalForAll(address,bool)": {
        "details": "See {IERC721-setApprovalForAll}."
      },
      "supportsInterface(bytes4)": {
        "details": "See {IERC165-supportsInterface}."
      },
      "symbol()": {
        "details": "See {IERC721Metadata-symbol}."
      },
      "tokenURI(uint256)": {
        "details": "See {IERC721Metadata-tokenURI}."
      },
      "transferFrom(address,address,uint256)": {
        "details": "See {IERC721-transferFrom}."
      }
    },
    "version": 1
  },
  "userdoc": {
    "kind": "user",
    "methods": {},
    "version": 1
  }
}