{
  "contractName": "Notary",
  "abi": [
    {
      "inputs": [],
      "stateMutability": "nonpayable",
      "type": "constructor"
    },
    {
      "anonymous": false,
      "inputs": [
        {
          "indexed": true,
          "internalType": "address",
          "name": "owner",
          "type": "address"
        },
        {
          "indexed": true,
          "internalType": "address",
          "name": "approved",
          "type": "address"
        },
        {
          "indexed": true,
          "internalType": "uint256",
          "name": "tokenId",
          "type": "uint256"
        }
      ],
      "name": "Approval",
      "type": "event"
    },
    {
      "anonymous": false,
      "inputs": [
        {
          "indexed": true,
          "internalType": "address",
          "name": "owner",
          "type": "address"
        },
        {
          "indexed": true,
          "internalType": "address",
          "name": "operator",
          "type": "address"
        },
        {
          "indexed": false,
          "internalType": "bool",
          "name": "approved",
          "type": "bool"
        }
      ],
      "name": "ApprovalForAll",
      "type": "event"
    },
    {
      "anonymous": false,
      "inputs": [
        {
          "indexed": true,
          "internalType": "address",
          "name": "from",
          "type": "address"
        },
        {
          "indexed": true,
          "internalType": "address",
          "name": "to",
          "type": "address"
        },
        {
          "indexed": true,
          "internalType": "uint256",
          "name": "tokenId",
          "type": "uint256"
        }
      ],
      "name": "Transfer",
      "type": "event"
    },
    {
      "inputs": [
        {
          "internalType": "address",
          "name": "to",
          "type": "address"
        },
        {
          "internalType": "uint256",
          "name": "tokenId",
          "type": "uint256"
        }
      ],
      "name": "approve",
      "outputs": [],
      "stateMutability": "nonpayable",
      "type": "function"
    },
    {
      "inputs": [
        {
          "internalType": "address",
          "name": "owner",
          "type": "address"
        }
      ],
      "name": "balanceOf",
      "outputs": [
        {
          "internalType": "uint256",
          "name": "",
          "type": "uint256"
        }
      ],
      "stateMutability": "view",
      "type": "function",
      "constant": true
    },
    {
      "inputs": [
        {
          "internalType": "uint256",
          "name": "tokenId",
          "type": "uint256"
        }
      ],
      "name": "getApproved",
      "outputs": [
        {
          "internalType": "address",
          "name": "",
          "type": "address"
        }
      ],
      "stateMutability": "view",
      "type": "function",
      "constant": true
    },
    {
      "inputs": [
        {
          "internalType": "address",
          "name": "owner",
          "type": "address"
        },
        {
          "internalType": "address",
          "name": "operator",
          "type": "address"
        }
      ],
      "name": "isApprovedForAll",
      "outputs": [
        {
          "internalType": "bool",
          "name": "",
          "type": "bool"
        }
      ],
      "stateMutability": "view",
      "type": "function",
      "constant": true
    },
    {
      "inputs": [],
      "name": "name",
      "outputs": [
        {
          "internalType": "string",
          "name": "",
          "type": "string"
        }
      ],
      "stateMutability": "view",
      "type": "function",
      "constant": true
    },
    {
      "inputs": [
        {
          "internalType": "uint256",
          "name": "tokenId",
          "type": "uint256"
        }
      ],
      "name": "ownerOf",
      "outputs": [
        {
          "internalType": "address",
          "name": "",
          "type": "address"
        }
      ],
      "stateMutability": "view",
      "type": "function",
      "constant": true
    },
    {
      "inputs": [
        {
          "internalType": "address",
          "name": "from",
          "type": "address"
        },
        {
          "internalType": "address",
          "name": "to",
          "type": "address"
        },
        {
          "internalType": "uint256",
          "name": "tokenId",
          "type": "uint256"
        }
      ],
      "name": "safeTransferFrom",
      "outputs": [],
      "stateMutability": "nonpayable",
      "type": "function"
    },
    {
      "inputs": [
        {
          "internalType": "address",
          "name": "from",
          "type": "address"
        },
        {
          "internalType": "address",
          "name": "to",
          "type": "address"
        },
        {
          "internalType": "uint256",
          "name": "tokenId",
          "type": "uint256"
        },
        {
          "internalType": "bytes",
          "name": "_data",
          "type": "bytes"
        }
      ],
      "name": "safeTransferFrom",
      "outputs": [],
      "stateMutability": "nonpayable",
      "type": "function"
    },
    {
      "inputs": [
        {
          "internalType": "address",
          "name": "operator",
          "type": "address"
        },
        {
          "internalType": "bool",
          "name": "approved",
          "type": "bool"
        }
      ],
      "name": "setApprovalForAll",
      "outputs": [],
      "stateMutability": "nonpayable",
      "type": "function"
    },
    {
      "inputs": [
        {
          "internalType": "uint256",
          "name": "",
          "type": "uint256"
        }
      ],
      "name": "starsForSale",
      "outputs": [
        {
          "internalType": "uint256",
          "name": "",
          "type": "uint256"
        }
      ],
      "stateMutability": "view",
      "type": "function",
      "constant": true
    },
    {
      "inputs": [
        {
          "internalType": "bytes4",
          "name": "interfaceId",
          "type": "bytes4"
        }
      ],
      "name": "supportsInterface",
      "outputs": [
        {
          "internalType": "bool",
          "name": "",
          "type": "bool"
        }
      ],
      "stateMutability": "view",
      "type": "function",
      "constant": true
    },
    {
      "inputs": [],
      "name": "symbol",
      "outputs": [
        {
          "internalType": "string",
          "name": "",
          "type": "string"
        }
      ],
      "stateMutability": "view",
      "type": "function",
      "constant": true
    },
    {
      "inputs": [
        {
          "internalType": "uint256",
          "name": "",
          "type": "uint256"
        }
      ],
      "name": "tokenIdToStarInfo",
      "outputs": [
        {
          "internalType": "string",
          "name": "name",
          "type": "string"
        }
      ],
      "stateMutability": "view",
      "type": "function",
      "constant": true
    },
    {
      "inputs": [
        {
          "internalType": "uint256",
          "name": "tokenId",
          "type": "uint256"
        }
      ],
      "name": "tokenURI",
      "outputs": [
        {
          "internalType": "string",
          "name": "",
          "type": "string"
        }
      ],
      "stateMutability": "view",
      "type": "function",
      "constant": true
    },
    {
      "inputs": [
        {
          "internalType": "address",
          "name": "from",
          "type": "address"
        },
        {
          "internalType": "address",
          "name": "to",
          "type": "address"
        },
        {
          "internalType": "uint256",
          "name": "tokenId",
          "type": "uint256"
        }
      ],
      "name": "transferFrom",
      "outputs": [],
      "stateMutability": "nonpayable",
      "type": "function"
    },
    {
      "inputs": [
        {
          "internalType": "string",
          "name": "name_",
          "type": "string"
        },
        {
          "internalType": "uint256",
          "name": "_tokenId",
          "type": "uint256"
        }
      ],
      "name": "createStar",
      "outputs": [],
      "stateMutability": "nonpayable",
      "type": "function"
    },
    {
      "inputs": [
        {
          "internalType": "uint256",
          "name": "_tokenId",
          "type": "uint256"
        },
        {
          "internalType": "uint256",
          "name": "price_",
          "type": "uint256"
        },
        {
          "internalType": "address",
          "name": "to_",
          "type": "address"
        }
      ],
      "name": "putStarUpForSale",
      "outputs": [],
      "stateMutability": "nonpayable",
      "type": "function"
    },
    {
      "inputs": [
        {
          "internalType": "uint256",
          "name": "_tokenId",
          "type": "uint256"
        }
      ],
      "name": "lookUpTokenIdToStarInfo",
      "outputs": [
        {
          "internalType": "string",
          "name": "starName",
          "type": "string"
        }
      ],
      "stateMutability": "view",
      "type": "function",
      "constant": true
    },
    {
      "inputs": [
        {
          "internalType": "uint256",
          "name": "_tokenId",
          "type": "uint256"
        }
      ],
      "name": "buyStar",
      "outputs": [],
      "stateMutability": "payable",
      "type": "function",
      "payable": true
    }
  ],
  "bytecode": "0x60806040523480156200001157600080fd5b506040518060400160405280600b81526020017f53746172204e6f746172790000000000000000000000000000000000000000008152506040518060400160405280600381526020017f53544e0000000000000000000000000000000000000000000000000000000000815250816000908051906020019062000096929190620000b8565b508060019080519060200190620000af929190620000b8565b505050620001cd565b828054620000c69062000168565b90600052602060002090601f016020900481019282620000ea576000855562000136565b82601f106200010557805160ff191683800117855562000136565b8280016001018555821562000136579182015b828111156200013557825182559160200191906001019062000118565b5b50905062000145919062000149565b5090565b5b80821115620001645760008160009055506001016200014a565b5090565b600060028204905060018216806200018157607f821691505b602082108114156200019857620001976200019e565b5b50919050565b7f4e487b7100000000000000000000000000000000000000000000000000000000600052602260045260246000fd5b6131b180620001dd6000396000f3fe6080604052600436106101145760003560e01c806342842e0e116100a05780639697c0a1116100645780639697c0a1146103da578063a22cb46514610403578063b88d4fde1461042c578063c87b56dd14610455578063e985e9c51461049257610114565b806342842e0e146102e35780636352211e1461030c57806370a0823114610349578063710990bc1461038657806395d89b41146103af57610114565b8063095ea7b3116100e7578063095ea7b3146101fb5780631967fd981461022457806323b872dd146102615780632f1c34ef1461028a5780633d912858146102a657610114565b806301ffc9a7146101195780630564b1301461015657806306fdde0314610193578063081812fc146101be575b600080fd5b34801561012557600080fd5b50610140600480360381019061013b919061201c565b6104cf565b60405161014d9190612546565b60405180910390f35b34801561016257600080fd5b5061017d600480360381019061017891906120d2565b6105b1565b60405161018a91906127e3565b60405180910390f35b34801561019f57600080fd5b506101a86105c9565b6040516101b59190612561565b60405180910390f35b3480156101ca57600080fd5b506101e560048036038101906101e091906120d2565b61065b565b6040516101f291906124df565b60405180910390f35b34801561020757600080fd5b50610222600480360381019061021d9190611fdc565b6106e0565b005b34801561023057600080fd5b5061024b600480360381019061024691906120d2565b6107f8565b6040516102589190612561565b60405180910390f35b34801561026d57600080fd5b5061028860048036038101906102839190611ec6565b61089e565b005b6102a4600480360381019061029f91906120d2565b6108fe565b005b3480156102b257600080fd5b506102cd60048036038101906102c891906120d2565b610ae5565b6040516102da9190612561565b60405180910390f35b3480156102ef57600080fd5b5061030a60048036038101906103059190611ec6565b610b8d565b005b34801561031857600080fd5b50610333600480360381019061032e91906120d2565b610bad565b60405161034091906124df565b60405180910390f35b34801561035557600080fd5b50610370600480360381019061036b9190611e59565b610c5f565b60405161037d91906127e3565b60405180910390f35b34801561039257600080fd5b506103ad60048036038101906103a891906120ff565b610d17565b005b3480156103bb57600080fd5b506103c4610e3b565b6040516103d19190612561565b60405180910390f35b3480156103e657600080fd5b5061040160048036038101906103fc9190612076565b610ecd565b005b34801561040f57600080fd5b5061042a60048036038101906104259190611f9c565b610f23565b005b34801561043857600080fd5b50610453600480360381019061044e9190611f19565b6110a4565b005b34801561046157600080fd5b5061047c600480360381019061047791906120d2565b611106565b6040516104899190612561565b60405180910390f35b34801561049e57600080fd5b506104b960048036038101906104b49190611e86565b6111ad565b6040516104c69190612546565b60405180910390f35b60007f80ac58cd000000000000000000000000000000000000000000000000000000007bffffffffffffffffffffffffffffffffffffffffffffffffffffffff1916827bffffffffffffffffffffffffffffffffffffffffffffffffffffffff1916148061059a57507f5b5e139f000000000000000000000000000000000000000000000000000000007bffffffffffffffffffffffffffffffffffffffffffffffffffffffff1916827bffffffffffffffffffffffffffffffffffffffffffffffffffffffff1916145b806105aa57506105a982611241565b5b9050919050565b60076020528060005260406000206000915090505481565b6060600080546105d890612a39565b80601f016020809104026020016040519081016040528092919081815260200182805461060490612a39565b80156106515780601f1061062657610100808354040283529160200191610651565b820191906000526020600020905b81548152906001019060200180831161063457829003601f168201915b5050505050905090565b6000610666826112ab565b6106a5576040517f08c379a000000000000000000000000000000000000000000000000000000000815260040161069c90612703565b60405180910390fd5b6004600083815260200190815260200160002060009054906101000a900473ffffffffffffffffffffffffffffffffffffffff169050919050565b60006106eb82610bad565b90508073ffffffffffffffffffffffffffffffffffffffff168373ffffffffffffffffffffffffffffffffffffffff16141561075c576040517f08c379a000000000000000000000000000000000000000000000000000000000815260040161075390612763565b60405180910390fd5b8073ffffffffffffffffffffffffffffffffffffffff1661077b611317565b73ffffffffffffffffffffffffffffffffffffffff1614806107aa57506107a9816107a4611317565b6111ad565b5b6107e9576040517f08c379a00000000000000000000000000000000000000000000000000000000081526004016107e090612663565b60405180910390fd5b6107f3838361131f565b505050565b600660205280600052604060002060009150905080600001805461081b90612a39565b80601f016020809104026020016040519081016040528092919081815260200182805461084790612a39565b80156108945780601f1061086957610100808354040283529160200191610894565b820191906000526020600020905b81548152906001019060200180831161087757829003601f168201915b5050505050905081565b6108af6108a9611317565b826113d8565b6108ee576040517f08c379a00000000000000000000000000000000000000000000000000000000081526004016108e5906127a3565b60405180910390fd5b6108f98383836114b6565b505050565b6000600760008381526020019081526020016000205411610954576040517f08c379a000000000000000000000000000000000000000000000000000000000815260040161094b906127c3565b60405180910390fd5b600060076000838152602001908152602001600020549050600061097783610bad565b9050813410156109bc576040517f08c379a00000000000000000000000000000000000000000000000000000000081526004016109b390612643565b60405180910390fd5b6109c7813385610b8d565b60006109d282611712565b905060006109df33611712565b90508173ffffffffffffffffffffffffffffffffffffffff166108fc859081150290604051600060405180830381858888f19350505050158015610a27573d6000803e3d6000fd5b5083341115610a83578073ffffffffffffffffffffffffffffffffffffffff166108fc8534610a56919061294f565b9081150290604051600060405180830381858888f19350505050158015610a81573d6000803e3d6000fd5b505b843373ffffffffffffffffffffffffffffffffffffffff168473ffffffffffffffffffffffffffffffffffffffff167fddf252ad1be2c89b69c2b068fc378daa952ba7f163c4a11628f55a4df523b3ef60405160405180910390a45050505050565b6060600660008381526020019081526020016000206000018054610b0890612a39565b80601f0160208091040260200160405190810160405280929190818152602001828054610b3490612a39565b8015610b815780601f10610b5657610100808354040283529160200191610b81565b820191906000526020600020905b815481529060010190602001808311610b6457829003601f168201915b50505050509050919050565b610ba8838383604051806020016040528060008152506110a4565b505050565b6000806002600084815260200190815260200160002060009054906101000a900473ffffffffffffffffffffffffffffffffffffffff169050600073ffffffffffffffffffffffffffffffffffffffff168173ffffffffffffffffffffffffffffffffffffffff161415610c56576040517f08c379a0000000000000000000000000000000000000000000000000000000008152600401610c4d906126a3565b60405180910390fd5b80915050919050565b60008073ffffffffffffffffffffffffffffffffffffffff168273ffffffffffffffffffffffffffffffffffffffff161415610cd0576040517f08c379a0000000000000000000000000000000000000000000000000000000008152600401610cc790612683565b60405180910390fd5b600360008373ffffffffffffffffffffffffffffffffffffffff1673ffffffffffffffffffffffffffffffffffffffff168152602001908152602001600020549050919050565b60008311610d5a576040517f08c379a0000000000000000000000000000000000000000000000000000000008152600401610d5190612583565b60405180910390fd5b60008211610d9d576040517f08c379a0000000000000000000000000000000000000000000000000000000008152600401610d9490612783565b60405180910390fd5b3373ffffffffffffffffffffffffffffffffffffffff16610dbd84610bad565b73ffffffffffffffffffffffffffffffffffffffff1614610e13576040517f08c379a0000000000000000000000000000000000000000000000000000000008152600401610e0a906126c3565b60405180910390fd5b610e1e816001610f23565b816007600085815260200190815260200160002081905550505050565b606060018054610e4a90612a39565b80601f0160208091040260200160405190810160405280929190818152602001828054610e7690612a39565b8015610ec35780601f10610e9857610100808354040283529160200191610ec3565b820191906000526020600020905b815481529060010190602001808311610ea657829003601f168201915b5050505050905090565b6000604051806020016040528084815250905080600660008481526020019081526020016000206000820151816000019080519060200190610f10929190611c6d565b50905050610f1e338361171c565b505050565b610f2b611317565b73ffffffffffffffffffffffffffffffffffffffff168273ffffffffffffffffffffffffffffffffffffffff161415610f99576040517f08c379a0000000000000000000000000000000000000000000000000000000008152600401610f9090612603565b60405180910390fd5b8060056000610fa6611317565b73ffffffffffffffffffffffffffffffffffffffff1673ffffffffffffffffffffffffffffffffffffffff16815260200190815260200160002060008473ffffffffffffffffffffffffffffffffffffffff1673ffffffffffffffffffffffffffffffffffffffff16815260200190815260200160002060006101000a81548160ff0219169083151502179055508173ffffffffffffffffffffffffffffffffffffffff16611053611317565b73ffffffffffffffffffffffffffffffffffffffff167f17307eab39ab6107e8899845ad3d59bd9653f200f220920489ca2b5937696c31836040516110989190612546565b60405180910390a35050565b6110b56110af611317565b836113d8565b6110f4576040517f08c379a00000000000000000000000000000000000000000000000000000000081526004016110eb906127a3565b60405180910390fd5b611100848484846118ea565b50505050565b6060611111826112ab565b611150576040517f08c379a000000000000000000000000000000000000000000000000000000000815260040161114790612743565b60405180910390fd5b600061115a611946565b9050600081511161117a57604051806020016040528060008152506111a5565b806111848461195d565b6040516020016111959291906124bb565b6040516020818303038152906040525b915050919050565b6000600560008473ffffffffffffffffffffffffffffffffffffffff1673ffffffffffffffffffffffffffffffffffffffff16815260200190815260200160002060008373ffffffffffffffffffffffffffffffffffffffff1673ffffffffffffffffffffffffffffffffffffffff16815260200190815260200160002060009054906101000a900460ff16905092915050565b60007f01ffc9a7000000000000000000000000000000000000000000000000000000007bffffffffffffffffffffffffffffffffffffffffffffffffffffffff1916827bffffffffffffffffffffffffffffffffffffffffffffffffffffffff1916149050919050565b60008073ffffffffffffffffffffffffffffffffffffffff166002600084815260200190815260200160002060009054906101000a900473ffffffffffffffffffffffffffffffffffffffff1673ffffffffffffffffffffffffffffffffffffffff1614159050919050565b600033905090565b816004600083815260200190815260200160002060006101000a81548173ffffffffffffffffffffffffffffffffffffffff021916908373ffffffffffffffffffffffffffffffffffffffff160217905550808273ffffffffffffffffffffffffffffffffffffffff1661139283610bad565b73ffffffffffffffffffffffffffffffffffffffff167f8c5be1e5ebec7d5bd14f71427d1e84f3dd0314c0f7b2291e5b200ac8c7c3b92560405160405180910390a45050565b60006113e3826112ab565b611422576040517f08c379a000000000000000000000000000000000000000000000000000000000815260040161141990612623565b60405180910390fd5b600061142d83610bad565b90508073ffffffffffffffffffffffffffffffffffffffff168473ffffffffffffffffffffffffffffffffffffffff16148061149c57508373ffffffffffffffffffffffffffffffffffffffff166114848461065b565b73ffffffffffffffffffffffffffffffffffffffff16145b806114ad57506114ac81856111ad565b5b91505092915050565b8273ffffffffffffffffffffffffffffffffffffffff166114d682610bad565b73ffffffffffffffffffffffffffffffffffffffff161461152c576040517f08c379a000000000000000000000000000000000000000000000000000000000815260040161152390612723565b60405180910390fd5b600073ffffffffffffffffffffffffffffffffffffffff168273ffffffffffffffffffffffffffffffffffffffff16141561159c576040517f08c379a0000000000000000000000000000000000000000000000000000000008152600401611593906125e3565b60405180910390fd5b6115a7838383611abe565b6115b260008261131f565b6001600360008573ffffffffffffffffffffffffffffffffffffffff1673ffffffffffffffffffffffffffffffffffffffff1681526020019081526020016000206000828254611602919061294f565b925050819055506001600360008473ffffffffffffffffffffffffffffffffffffffff1673ffffffffffffffffffffffffffffffffffffffff168152602001908152602001600020600082825461165991906128c8565b92505081905550816002600083815260200190815260200160002060006101000a81548173ffffffffffffffffffffffffffffffffffffffff021916908373ffffffffffffffffffffffffffffffffffffffff160217905550808273ffffffffffffffffffffffffffffffffffffffff168473ffffffffffffffffffffffffffffffffffffffff167fddf252ad1be2c89b69c2b068fc378daa952ba7f163c4a11628f55a4df523b3ef60405160405180910390a4505050565b6000819050919050565b600073ffffffffffffffffffffffffffffffffffffffff168273ffffffffffffffffffffffffffffffffffffffff16141561178c576040517f08c379a0000000000000000000000000000000000000000000000000000000008152600401611783906126e3565b60405180910390fd5b611795816112ab565b156117d5576040517f08c379a00000000000000000000000000000000000000000000000000000000081526004016117cc906125c3565b60405180910390fd5b6117e160008383611abe565b6001600360008473ffffffffffffffffffffffffffffffffffffffff1673ffffffffffffffffffffffffffffffffffffffff168152602001908152602001600020600082825461183191906128c8565b92505081905550816002600083815260200190815260200160002060006101000a81548173ffffffffffffffffffffffffffffffffffffffff021916908373ffffffffffffffffffffffffffffffffffffffff160217905550808273ffffffffffffffffffffffffffffffffffffffff16600073ffffffffffffffffffffffffffffffffffffffff167fddf252ad1be2c89b69c2b068fc378daa952ba7f163c4a11628f55a4df523b3ef60405160405180910390a45050565b6118f58484846114b6565b61190184848484611ac3565b611940576040517f08c379a0000000000000000000000000000000000000000000000000000000008152600401611937906125a3565b60405180910390fd5b50505050565b606060405180602001604052806000815250905090565b606060008214156119a5576040518060400160405280600181526020017f30000000000000000000000000000000000000000000000000000000000000008152509050611ab9565b600082905060005b600082146119d75780806119c090612a9c565b915050600a826119d0919061291e565b91506119ad565b60008167ffffffffffffffff8111156119f3576119f2612bd2565b5b6040519080825280601f01601f191660200182016040528015611a255781602001600182028036833780820191505090505b5090505b60008514611ab257600182611a3e919061294f565b9150600a85611a4d9190612ae5565b6030611a5991906128c8565b60f81b818381518110611a6f57611a6e612ba3565b5b60200101907effffffffffffffffffffffffffffffffffffffffffffffffffffffffffffff1916908160001a905350600a85611aab919061291e565b9450611a29565b8093505050505b919050565b505050565b6000611ae48473ffffffffffffffffffffffffffffffffffffffff16611c5a565b15611c4d578373ffffffffffffffffffffffffffffffffffffffff1663150b7a02611b0d611317565b8786866040518563ffffffff1660e01b8152600401611b2f94939291906124fa565b602060405180830381600087803b158015611b4957600080fd5b505af1925050508015611b7a57506040513d601f19601f82011682018060405250810190611b779190612049565b60015b611bfd573d8060008114611baa576040519150601f19603f3d011682016040523d82523d6000602084013e611baf565b606091505b50600081511415611bf5576040517f08c379a0000000000000000000000000000000000000000000000000000000008152600401611bec906125a3565b60405180910390fd5b805181602001fd5b63150b7a0260e01b7bffffffffffffffffffffffffffffffffffffffffffffffffffffffff1916817bffffffffffffffffffffffffffffffffffffffffffffffffffffffff191614915050611c52565b600190505b949350505050565b600080823b905060008111915050919050565b828054611c7990612a39565b90600052602060002090601f016020900481019282611c9b5760008555611ce2565b82601f10611cb457805160ff1916838001178555611ce2565b82800160010185558215611ce2579182015b82811115611ce1578251825591602001919060010190611cc6565b5b509050611cef9190611cf3565b5090565b5b80821115611d0c576000816000905550600101611cf4565b5090565b6000611d23611d1e84612823565b6127fe565b905082815260208101848484011115611d3f57611d3e612c06565b5b611d4a8482856129f7565b509392505050565b6000611d65611d6084612854565b6127fe565b905082815260208101848484011115611d8157611d80612c06565b5b611d8c8482856129f7565b509392505050565b600081359050611da38161311f565b92915050565b600081359050611db881613136565b92915050565b600081359050611dcd8161314d565b92915050565b600081519050611de28161314d565b92915050565b600082601f830112611dfd57611dfc612c01565b5b8135611e0d848260208601611d10565b91505092915050565b600082601f830112611e2b57611e2a612c01565b5b8135611e3b848260208601611d52565b91505092915050565b600081359050611e5381613164565b92915050565b600060208284031215611e6f57611e6e612c10565b5b6000611e7d84828501611d94565b91505092915050565b60008060408385031215611e9d57611e9c612c10565b5b6000611eab85828601611d94565b9250506020611ebc85828601611d94565b9150509250929050565b600080600060608486031215611edf57611ede612c10565b5b6000611eed86828701611d94565b9350506020611efe86828701611d94565b9250506040611f0f86828701611e44565b9150509250925092565b60008060008060808587031215611f3357611f32612c10565b5b6000611f4187828801611d94565b9450506020611f5287828801611d94565b9350506040611f6387828801611e44565b925050606085013567ffffffffffffffff811115611f8457611f83612c0b565b5b611f9087828801611de8565b91505092959194509250565b60008060408385031215611fb357611fb2612c10565b5b6000611fc185828601611d94565b9250506020611fd285828601611da9565b9150509250929050565b60008060408385031215611ff357611ff2612c10565b5b600061200185828601611d94565b925050602061201285828601611e44565b9150509250929050565b60006020828403121561203257612031612c10565b5b600061204084828501611dbe565b91505092915050565b60006020828403121561205f5761205e612c10565b5b600061206d84828501611dd3565b91505092915050565b6000806040838503121561208d5761208c612c10565b5b600083013567ffffffffffffffff8111156120ab576120aa612c0b565b5b6120b785828601611e16565b92505060206120c885828601611e44565b9150509250929050565b6000602082840312156120e8576120e7612c10565b5b60006120f684828501611e44565b91505092915050565b60008060006060848603121561211857612117612c10565b5b600061212686828701611e44565b935050602061213786828701611e44565b925050604061214886828701611d94565b9150509250925092565b61215b81612983565b82525050565b61216a81612995565b82525050565b600061217b82612885565b612185818561289b565b9350612195818560208601612a06565b61219e81612c15565b840191505092915050565b60006121b482612890565b6121be81856128ac565b93506121ce818560208601612a06565b6121d781612c15565b840191505092915050565b60006121ed82612890565b6121f781856128bd565b9350612207818560208601612a06565b80840191505092915050565b60006122206018836128ac565b915061222b82612c26565b602082019050919050565b60006122436032836128ac565b915061224e82612c4f565b604082019050919050565b6000612266601c836128ac565b915061227182612c9e565b602082019050919050565b60006122896024836128ac565b915061229482612cc7565b604082019050919050565b60006122ac6019836128ac565b91506122b782612d16565b602082019050919050565b60006122cf602c836128ac565b91506122da82612d3f565b604082019050919050565b60006122f2602d836128ac565b91506122fd82612d8e565b604082019050919050565b60006123156038836128ac565b915061232082612ddd565b604082019050919050565b6000612338602a836128ac565b915061234382612e2c565b604082019050919050565b600061235b6029836128ac565b915061236682612e7b565b604082019050919050565b600061237e602a836128ac565b915061238982612eca565b604082019050919050565b60006123a16020836128ac565b91506123ac82612f19565b602082019050919050565b60006123c4602c836128ac565b91506123cf82612f42565b604082019050919050565b60006123e76029836128ac565b91506123f282612f91565b604082019050919050565b600061240a602f836128ac565b915061241582612fe0565b604082019050919050565b600061242d6021836128ac565b91506124388261302f565b604082019050919050565b6000612450601c836128ac565b915061245b8261307e565b602082019050919050565b60006124736031836128ac565b915061247e826130a7565b604082019050919050565b6000612496601e836128ac565b91506124a1826130f6565b602082019050919050565b6124b5816129ed565b82525050565b60006124c782856121e2565b91506124d382846121e2565b91508190509392505050565b60006020820190506124f46000830184612152565b92915050565b600060808201905061250f6000830187612152565b61251c6020830186612152565b61252960408301856124ac565b818103606083015261253b8184612170565b905095945050505050565b600060208201905061255b6000830184612161565b92915050565b6000602082019050818103600083015261257b81846121a9565b905092915050565b6000602082019050818103600083015261259c81612213565b9050919050565b600060208201905081810360008301526125bc81612236565b9050919050565b600060208201905081810360008301526125dc81612259565b9050919050565b600060208201905081810360008301526125fc8161227c565b9050919050565b6000602082019050818103600083015261261c8161229f565b9050919050565b6000602082019050818103600083015261263c816122c2565b9050919050565b6000602082019050818103600083015261265c816122e5565b9050919050565b6000602082019050818103600083015261267c81612308565b9050919050565b6000602082019050818103600083015261269c8161232b565b9050919050565b600060208201905081810360008301526126bc8161234e565b9050919050565b600060208201905081810360008301526126dc81612371565b9050919050565b600060208201905081810360008301526126fc81612394565b9050919050565b6000602082019050818103600083015261271c816123b7565b9050919050565b6000602082019050818103600083015261273c816123da565b9050919050565b6000602082019050818103600083015261275c816123fd565b9050919050565b6000602082019050818103600083015261277c81612420565b9050919050565b6000602082019050818103600083015261279c81612443565b9050919050565b600060208201905081810360008301526127bc81612466565b9050919050565b600060208201905081810360008301526127dc81612489565b9050919050565b60006020820190506127f860008301846124ac565b92915050565b6000612808612819565b90506128148282612a6b565b919050565b6000604051905090565b600067ffffffffffffffff82111561283e5761283d612bd2565b5b61284782612c15565b9050602081019050919050565b600067ffffffffffffffff82111561286f5761286e612bd2565b5b61287882612c15565b9050602081019050919050565b600081519050919050565b600081519050919050565b600082825260208201905092915050565b600082825260208201905092915050565b600081905092915050565b60006128d3826129ed565b91506128de836129ed565b9250827fffffffffffffffffffffffffffffffffffffffffffffffffffffffffffffffff0382111561291357612912612b16565b5b828201905092915050565b6000612929826129ed565b9150612934836129ed565b92508261294457612943612b45565b5b828204905092915050565b600061295a826129ed565b9150612965836129ed565b92508282101561297857612977612b16565b5b828203905092915050565b600061298e826129cd565b9050919050565b60008115159050919050565b60007fffffffff0000000000000000000000000000000000000000000000000000000082169050919050565b600073ffffffffffffffffffffffffffffffffffffffff82169050919050565b6000819050919050565b82818337600083830152505050565b60005b83811015612a24578082015181840152602081019050612a09565b83811115612a33576000848401525b50505050565b60006002820490506001821680612a5157607f821691505b60208210811415612a6557612a64612b74565b5b50919050565b612a7482612c15565b810181811067ffffffffffffffff82111715612a9357612a92612bd2565b5b80604052505050565b6000612aa7826129ed565b91507fffffffffffffffffffffffffffffffffffffffffffffffffffffffffffffffff821415612ada57612ad9612b16565b5b600182019050919050565b6000612af0826129ed565b9150612afb836129ed565b925082612b0b57612b0a612b45565b5b828206905092915050565b7f4e487b7100000000000000000000000000000000000000000000000000000000600052601160045260246000fd5b7f4e487b7100000000000000000000000000000000000000000000000000000000600052601260045260246000fd5b7f4e487b7100000000000000000000000000000000000000000000000000000000600052602260045260246000fd5b7f4e487b7100000000000000000000000000000000000000000000000000000000600052603260045260246000fd5b7f4e487b7100000000000000000000000000000000000000000000000000000000600052604160045260246000fd5b600080fd5b600080fd5b600080fd5b600080fd5b6000601f19601f8301169050919050565b7f746f6b656e4964206d757374206e6f74206265207a65726f0000000000000000600082015250565b7f4552433732313a207472616e7366657220746f206e6f6e20455243373231526560008201527f63656976657220696d706c656d656e7465720000000000000000000000000000602082015250565b7f4552433732313a20746f6b656e20616c7265616479206d696e74656400000000600082015250565b7f4552433732313a207472616e7366657220746f20746865207a65726f2061646460008201527f7265737300000000000000000000000000000000000000000000000000000000602082015250565b7f4552433732313a20617070726f766520746f2063616c6c657200000000000000600082015250565b7f4552433732313a206f70657261746f7220717565727920666f72206e6f6e657860008201527f697374656e7420746f6b656e0000000000000000000000000000000000000000602082015250565b7f596f7572204554482062616c616e6365206d757374206265203e3d207468652060008201527f7072696365206f66207374617200000000000000000000000000000000000000602082015250565b7f4552433732313a20617070726f76652063616c6c6572206973206e6f74206f7760008201527f6e6572206e6f7220617070726f76656420666f7220616c6c0000000000000000602082015250565b7f4552433732313a2062616c616e636520717565727920666f7220746865207a6560008201527f726f206164647265737300000000000000000000000000000000000000000000602082015250565b7f4552433732313a206f776e657220717565727920666f72206e6f6e657869737460008201527f656e7420746f6b656e0000000000000000000000000000000000000000000000602082015250565b7f4f6e6c7920746f6b656e206f776e65722063616e2070757420757020746f6b6560008201527f6e20666f722073656c6c00000000000000000000000000000000000000000000602082015250565b7f4552433732313a206d696e7420746f20746865207a65726f2061646472657373600082015250565b7f4552433732313a20617070726f76656420717565727920666f72206e6f6e657860008201527f697374656e7420746f6b656e0000000000000000000000000000000000000000602082015250565b7f4552433732313a207472616e73666572206f6620746f6b656e2074686174206960008201527f73206e6f74206f776e0000000000000000000000000000000000000000000000602082015250565b7f4552433732314d657461646174613a2055524920717565727920666f72206e6f60008201527f6e6578697374656e7420746f6b656e0000000000000000000000000000000000602082015250565b7f4552433732313a20617070726f76616c20746f2063757272656e74206f776e6560008201527f7200000000000000000000000000000000000000000000000000000000000000602082015250565b7f746f6b656e207072696365206d757374206e6f74206265207a65726f00000000600082015250565b7f4552433732313a207472616e736665722063616c6c6572206973206e6f74206f60008201527f776e6572206e6f7220617070726f766564000000000000000000000000000000602082015250565b7f54686520737461722073686f756c6420626520757020666f722073616c650000600082015250565b61312881612983565b811461313357600080fd5b50565b61313f81612995565b811461314a57600080fd5b50565b613156816129a1565b811461316157600080fd5b50565b61316d816129ed565b811461317857600080fd5b5056fea2646970667358221220d4672ca2338f2e0f7f758a19f28aed03218e3cb24ad353d51cc019352452157164736f6c63430008070033",
  "immutableReferences": {},
  "source": "// SPDX-License-Identifier: MIT\n\npragma solidity >=0.4.0 <0.9.0;\nimport \"@openzeppelin/contracts/token/ERC721/ERC721.sol\";\n\ncontract Notary is ERC721 {\n\n\n  struct Star {\n    string name;\n  }\n\n    mapping(uint => Star) public tokenIdToStarInfo;\n    mapping(uint => uint) public starsForSale;\n    // bool approved;\n\n  constructor() ERC721(\"Star Notary\", \"STN\")  {}\n\n\n    function createStar(string memory name_, uint _tokenId) public {\n      Star memory newStar = Star({ name: name_});\n      tokenIdToStarInfo[_tokenId] = newStar;\n      _mint(msg.sender, _tokenId);\n    }\n\n    function putStarUpForSale(uint _tokenId, uint price_, address to_) public {\n        require(_tokenId > 0, \"tokenId must not be zero\");\n        require(price_ > 0, \"token price must not be zero\");\n      require(ownerOf(_tokenId) == msg.sender, \"Only token owner can put up token for sell\");\n    \n      setApprovalForAll(to_, true);\n      starsForSale[_tokenId] = price_;\n\n    }\n    \n    function lookUpTokenIdToStarInfo(uint _tokenId) public view returns(string memory starName) {\n        return starName = tokenIdToStarInfo[_tokenId].name;\n        \n    }\n\n\n\n    // convert address into payable address\n    function _make_payable(address account_)  internal pure returns(address payable) { \n      return payable(account_);\n\n    }\n\n    function buyStar(uint256 _tokenId) public payable {\n      require(starsForSale[_tokenId] > 0, \"The star should be up for sale\"); \n      uint256 starCost = starsForSale[_tokenId];\n      address ownerAddress = ownerOf(_tokenId);\n      require(msg.value >= starCost, \"Your ETH balance must be >= the price of star\");\n     \n      safeTransferFrom(ownerAddress, msg.sender, _tokenId);\n      address  payable payableOwnerAddress = _make_payable(ownerAddress);\n      address payable payableMsgSender = _make_payable(msg.sender);\n      payableOwnerAddress.transfer(starCost);\n      if(msg.value > starCost) {\n        payableMsgSender.transfer(msg.value - starCost);\n      }\n\n\n      emit Transfer(ownerAddress, msg.sender, _tokenId);\n    }\n\n\n}",
  "sourcePath": "/home/sprtd/Desktop/Udacity/lesson-3/star-notary-v2/contracts/Notary.sol",
  "compiler": {
    "name": "solc",
    "version": "0.8.7+commit.e28d00a7.Emscripten.clang"
  },
  "schemaVersion": "3.4.3",
  "updatedAt": "2021-09-02T12:13:30.855Z",
  "networkType": "ethereum",
  "devdoc": {
    "kind": "dev",
    "methods": {
      "approve(address,uint256)": {
        "details": "See {IERC721-approve}."
      },
      "balanceOf(address)": {
        "details": "See {IERC721-balanceOf}."
      },
      "getApproved(uint256)": {
        "details": "See {IERC721-getApproved}."
      },
      "isApprovedForAll(address,address)": {
        "details": "See {IERC721-isApprovedForAll}."
      },
      "name()": {
        "details": "See {IERC721Metadata-name}."
      },
      "ownerOf(uint256)": {
        "details": "See {IERC721-ownerOf}."
      },
      "safeTransferFrom(address,address,uint256)": {
        "details": "See {IERC721-safeTransferFrom}."
      },
      "safeTransferFrom(address,address,uint256,bytes)": {
        "details": "See {IERC721-safeTransferFrom}."
      },
      "setApprovalForAll(address,bool)": {
        "details": "See {IERC721-setApprovalForAll}."
      },
      "supportsInterface(bytes4)": {
        "details": "See {IERC165-supportsInterface}."
      },
      "symbol()": {
        "details": "See {IERC721Metadata-symbol}."
      },
      "tokenURI(uint256)": {
        "details": "See {IERC721Metadata-tokenURI}."
      },
      "transferFrom(address,address,uint256)": {
        "details": "See {IERC721-transferFrom}."
      }
    },
    "version": 1
  },
  "userdoc": {
    "kind": "user",
    "methods": {},
    "version": 1
  }
}